{
  "contractName": "DecentralBank",
  "abi": [
    {
      "inputs": [
        {
          "internalType": "contract UnconsciousEnergyToken",
          "name": "_UET",
          "type": "address"
        }
      ],
      "stateMutability": "nonpayable",
      "type": "constructor"
    },
    {
      "anonymous": false,
      "inputs": [
        {
          "indexed": true,
          "internalType": "address",
          "name": "_owner",
          "type": "address"
        },
        {
          "indexed": true,
          "internalType": "address",
          "name": "_spender",
          "type": "address"
        },
        {
          "indexed": false,
          "internalType": "uint256",
          "name": "_value",
          "type": "uint256"
        }
      ],
      "name": "Approval",
      "type": "event"
    },
    {
      "anonymous": false,
      "inputs": [
        {
          "indexed": true,
          "internalType": "address",
          "name": "_from",
          "type": "address"
        },
        {
          "indexed": false,
          "internalType": "uint256",
          "name": "_amount",
          "type": "uint256"
        }
      ],
      "name": "Deposited",
      "type": "event"
    },
    {
      "anonymous": false,
      "inputs": [
        {
          "indexed": true,
          "internalType": "address",
          "name": "_from",
          "type": "address"
        },
        {
          "indexed": true,
          "internalType": "address",
          "name": "_to",
          "type": "address"
        },
        {
          "indexed": false,
          "internalType": "uint256",
          "name": "_value",
          "type": "uint256"
        }
      ],
      "name": "Transfer",
      "type": "event"
    },
    {
      "inputs": [],
      "name": "UET",
      "outputs": [
        {
          "internalType": "contract UnconsciousEnergyToken",
          "name": "",
          "type": "address"
        }
      ],
      "stateMutability": "view",
      "type": "function"
    },
    {
      "inputs": [
        {
          "internalType": "address",
          "name": "",
          "type": "address"
        },
        {
          "internalType": "address",
          "name": "",
          "type": "address"
        }
      ],
      "name": "allowance",
      "outputs": [
        {
          "internalType": "uint256",
          "name": "",
          "type": "uint256"
        }
      ],
      "stateMutability": "view",
      "type": "function"
    },
    {
      "inputs": [
        {
          "internalType": "address",
          "name": "",
          "type": "address"
        }
      ],
      "name": "balanceOf",
      "outputs": [
        {
          "internalType": "uint256",
          "name": "",
          "type": "uint256"
        }
      ],
      "stateMutability": "view",
      "type": "function"
    },
    {
      "inputs": [],
      "name": "decimals",
      "outputs": [
        {
          "internalType": "uint8",
          "name": "",
          "type": "uint8"
        }
      ],
      "stateMutability": "view",
      "type": "function"
    },
    {
      "inputs": [
        {
          "internalType": "address",
          "name": "",
          "type": "address"
        }
      ],
      "name": "hasStaked",
      "outputs": [
        {
          "internalType": "bool",
          "name": "",
          "type": "bool"
        }
      ],
      "stateMutability": "view",
      "type": "function"
    },
    {
      "inputs": [
        {
          "internalType": "address",
          "name": "",
          "type": "address"
        }
      ],
      "name": "isStaking",
      "outputs": [
        {
          "internalType": "bool",
          "name": "",
          "type": "bool"
        }
      ],
      "stateMutability": "view",
      "type": "function"
    },
    {
      "inputs": [],
      "name": "name",
      "outputs": [
        {
          "internalType": "string",
          "name": "",
          "type": "string"
        }
      ],
      "stateMutability": "view",
      "type": "function"
    },
    {
      "inputs": [],
      "name": "owner",
      "outputs": [
        {
          "internalType": "address",
          "name": "",
          "type": "address"
        }
      ],
      "stateMutability": "view",
      "type": "function"
    },
    {
      "inputs": [
        {
          "internalType": "uint256",
          "name": "",
          "type": "uint256"
        }
      ],
      "name": "stakers",
      "outputs": [
        {
          "internalType": "address",
          "name": "",
          "type": "address"
        }
      ],
      "stateMutability": "view",
      "type": "function"
    },
    {
      "inputs": [
        {
          "internalType": "address",
          "name": "",
          "type": "address"
        }
      ],
      "name": "stakingBalance",
      "outputs": [
        {
          "internalType": "uint256",
          "name": "",
          "type": "uint256"
        }
      ],
      "stateMutability": "view",
      "type": "function"
    },
    {
      "inputs": [],
      "name": "totalSupply",
      "outputs": [
        {
          "internalType": "uint256",
          "name": "",
          "type": "uint256"
        }
      ],
      "stateMutability": "view",
      "type": "function"
    },
    {
      "inputs": [],
      "name": "depositMoney",
      "outputs": [],
      "stateMutability": "payable",
      "type": "function"
    },
    {
      "inputs": [
        {
          "internalType": "address",
          "name": "_to",
          "type": "address"
        },
        {
          "internalType": "uint256",
          "name": "_value",
          "type": "uint256"
        }
      ],
      "name": "withdrawMoney",
      "outputs": [
        {
          "internalType": "bool",
          "name": "success",
          "type": "bool"
        }
      ],
      "stateMutability": "nonpayable",
      "type": "function"
    },
    {
      "inputs": [],
      "name": "getSmartContractBalance",
      "outputs": [
        {
          "internalType": "uint256",
          "name": "",
          "type": "uint256"
        }
      ],
      "stateMutability": "view",
      "type": "function"
    },
    {
      "inputs": [
        {
          "internalType": "address",
          "name": "_to",
          "type": "address"
        },
        {
          "internalType": "uint256",
          "name": "_value",
          "type": "uint256"
        }
      ],
      "name": "transfer",
      "outputs": [
        {
          "internalType": "bool",
          "name": "success",
          "type": "bool"
        }
      ],
      "stateMutability": "nonpayable",
      "type": "function"
    },
    {
      "inputs": [
        {
          "internalType": "address",
          "name": "_spender",
          "type": "address"
        },
        {
          "internalType": "uint256",
          "name": "_value",
          "type": "uint256"
        }
      ],
      "name": "approve",
      "outputs": [
        {
          "internalType": "bool",
          "name": "success",
          "type": "bool"
        }
      ],
      "stateMutability": "nonpayable",
      "type": "function"
    },
    {
      "inputs": [
        {
          "internalType": "address",
          "name": "_from",
          "type": "address"
        },
        {
          "internalType": "address",
          "name": "_to",
          "type": "address"
        },
        {
          "internalType": "uint256",
          "name": "_value",
          "type": "uint256"
        }
      ],
      "name": "transferFrom",
      "outputs": [
        {
          "internalType": "bool",
          "name": "success",
          "type": "bool"
        }
      ],
      "stateMutability": "nonpayable",
      "type": "function"
    },
    {
      "inputs": [
        {
          "internalType": "uint256",
          "name": "_amount",
          "type": "uint256"
        }
      ],
      "name": "depositTokens",
      "outputs": [],
      "stateMutability": "nonpayable",
      "type": "function"
    },
    {
      "inputs": [],
      "name": "unstakeTokens",
      "outputs": [],
      "stateMutability": "nonpayable",
      "type": "function"
    },
    {
      "inputs": [],
      "name": "issueTokens",
      "outputs": [],
      "stateMutability": "nonpayable",
      "type": "function"
    }
  ],
  "bytecode": "0x60806040526040518060400160405280600e81526020017f446563656e7472616c2042616e6b000000000000000000000000000000000000815250600090816200004a9190620003ab565b5069152d02c7e14af68000006002556012600360006101000a81548160ff021916908360ff1602179055503480156200008257600080fd5b50604051620020fe380380620020fe8339818101604052810190620000a8919062000510565b80600360016101000a81548173ffffffffffffffffffffffffffffffffffffffff021916908373ffffffffffffffffffffffffffffffffffffffff16021790555033600160006101000a81548173ffffffffffffffffffffffffffffffffffffffff021916908373ffffffffffffffffffffffffffffffffffffffff1602179055505062000542565b600081519050919050565b7f4e487b7100000000000000000000000000000000000000000000000000000000600052604160045260246000fd5b7f4e487b7100000000000000000000000000000000000000000000000000000000600052602260045260246000fd5b60006002820490506001821680620001b357607f821691505b602082108103620001c957620001c86200016b565b5b50919050565b60008190508160005260206000209050919050565b60006020601f8301049050919050565b600082821b905092915050565b600060088302620002337fffffffffffffffffffffffffffffffffffffffffffffffffffffffffffffffff82620001f4565b6200023f8683620001f4565b95508019841693508086168417925050509392505050565b6000819050919050565b6000819050919050565b60006200028c62000286620002808462000257565b62000261565b62000257565b9050919050565b6000819050919050565b620002a8836200026b565b620002c0620002b78262000293565b84845462000201565b825550505050565b600090565b620002d7620002c8565b620002e48184846200029d565b505050565b5b818110156200030c5762000300600082620002cd565b600181019050620002ea565b5050565b601f8211156200035b576200032581620001cf565b6200033084620001e4565b8101602085101562000340578190505b620003586200034f85620001e4565b830182620002e9565b50505b505050565b600082821c905092915050565b6000620003806000198460080262000360565b1980831691505092915050565b60006200039b83836200036d565b9150826002028217905092915050565b620003b68262000131565b67ffffffffffffffff811115620003d257620003d16200013c565b5b620003de82546200019a565b620003eb82828562000310565b600060209050601f8311600181146200042357600084156200040e578287015190505b6200041a85826200038d565b8655506200048a565b601f1984166200043386620001cf565b60005b828110156200045d5784890151825560018201915060208501945060208101905062000436565b868310156200047d578489015162000479601f8916826200036d565b8355505b6001600288020188555050505b505050505050565b600080fd5b600073ffffffffffffffffffffffffffffffffffffffff82169050919050565b6000620004c48262000497565b9050919050565b6000620004d882620004b7565b9050919050565b620004ea81620004cb565b8114620004f657600080fd5b50565b6000815190506200050a81620004df565b92915050565b60006020828403121562000529576200052862000492565b5b60006200053984828501620004f9565b91505092915050565b611bac80620005526000396000f3fe60806040526004361061011f5760003560e01c806370a08231116100a0578063c93c8f3411610064578063c93c8f34146103cc578063dd49756e14610409578063dd62ed3e14610432578063f274c8971461046f578063fd5e6dd1146104ac5761011f565b806370a08231146102e5578063728227e0146103225780638da5cb5b1461034d578063a5ce413b14610378578063a9059cbb1461038f5761011f565b8063313ce567116100e7578063313ce567146101fe57806345bc78ab146102295780635145cbc01461026657806360ab5852146102915780636f49712b146102a85761011f565b806306fdde0314610124578063095ea7b31461014f57806316c05aa21461018c57806318160ddd1461019657806323b872dd146101c1575b600080fd5b34801561013057600080fd5b506101396104e9565b60405161014691906113f6565b60405180910390f35b34801561015b57600080fd5b50610176600480360381019061017191906114b1565b610577565b604051610183919061150c565b60405180910390f35b610194610669565b005b3480156101a257600080fd5b506101ab6106b9565b6040516101b89190611536565b60405180910390f35b3480156101cd57600080fd5b506101e860048036038101906101e39190611551565b6106bf565b6040516101f5919061150c565b60405180910390f35b34801561020a57600080fd5b50610213610945565b60405161022091906115c0565b60405180910390f35b34801561023557600080fd5b50610250600480360381019061024b91906115db565b610958565b60405161025d9190611536565b60405180910390f35b34801561027257600080fd5b5061027b610970565b6040516102889190611536565b60405180910390f35b34801561029d57600080fd5b506102a6610978565b005b3480156102b457600080fd5b506102cf60048036038101906102ca91906115db565b610b6e565b6040516102dc919061150c565b60405180910390f35b3480156102f157600080fd5b5061030c600480360381019061030791906115db565b610b8e565b6040516103199190611536565b60405180910390f35b34801561032e57600080fd5b50610337610ba6565b6040516103449190611667565b60405180910390f35b34801561035957600080fd5b50610362610bcc565b60405161036f9190611691565b60405180910390f35b34801561038457600080fd5b5061038d610bf2565b005b34801561039b57600080fd5b506103b660048036038101906103b191906114b1565b610dba565b6040516103c3919061150c565b60405180910390f35b3480156103d857600080fd5b506103f360048036038101906103ee91906115db565b610f23565b604051610400919061150c565b60405180910390f35b34801561041557600080fd5b50610430600480360381019061042b91906116ac565b610f43565b005b34801561043e57600080fd5b50610459600480360381019061045491906116d9565b61121f565b6040516104669190611536565b60405180910390f35b34801561047b57600080fd5b50610496600480360381019061049191906114b1565b611244565b6040516104a3919061150c565b60405180910390f35b3480156104b857600080fd5b506104d360048036038101906104ce91906116ac565b611327565b6040516104e09190611691565b60405180910390f35b600080546104f690611748565b80601f016020809104026020016040519081016040528092919081815260200182805461052290611748565b801561056f5780601f106105445761010080835404028352916020019161056f565b820191906000526020600020905b81548152906001019060200180831161055257829003601f168201915b505050505081565b600081600960003373ffffffffffffffffffffffffffffffffffffffff1673ffffffffffffffffffffffffffffffffffffffff16815260200190815260200160002060008573ffffffffffffffffffffffffffffffffffffffff1673ffffffffffffffffffffffffffffffffffffffff168152602001908152602001600020819055508273ffffffffffffffffffffffffffffffffffffffff163373ffffffffffffffffffffffffffffffffffffffff167f8c5be1e5ebec7d5bd14f71427d1e84f3dd0314c0f7b2291e5b200ac8c7c3b925846040516106579190611536565b60405180910390a36001905092915050565b3373ffffffffffffffffffffffffffffffffffffffff167f2da466a7b24304f47e87fa2e1e5a81b9831ce54fec19055ce277ca2f39ba42c4346040516106af9190611536565b60405180910390a2565b60025481565b6000600860008573ffffffffffffffffffffffffffffffffffffffff1673ffffffffffffffffffffffffffffffffffffffff1681526020019081526020016000205482111561070d57600080fd5b600960008573ffffffffffffffffffffffffffffffffffffffff1673ffffffffffffffffffffffffffffffffffffffff16815260200190815260200160002060003373ffffffffffffffffffffffffffffffffffffffff1673ffffffffffffffffffffffffffffffffffffffff1681526020019081526020016000205482111561079657600080fd5b81600860008573ffffffffffffffffffffffffffffffffffffffff1673ffffffffffffffffffffffffffffffffffffffff16815260200190815260200160002060008282546107e591906117a8565b9250508190555081600860008673ffffffffffffffffffffffffffffffffffffffff1673ffffffffffffffffffffffffffffffffffffffff168152602001908152602001600020600082825461083b91906117dc565b9250508190555081600960008673ffffffffffffffffffffffffffffffffffffffff1673ffffffffffffffffffffffffffffffffffffffff16815260200190815260200160002060003373ffffffffffffffffffffffffffffffffffffffff1673ffffffffffffffffffffffffffffffffffffffff16815260200190815260200160002060008282546108ce91906117dc565b925050819055508273ffffffffffffffffffffffffffffffffffffffff168473ffffffffffffffffffffffffffffffffffffffff167fddf252ad1be2c89b69c2b068fc378daa952ba7f163c4a11628f55a4df523b3ef846040516109329190611536565b60405180910390a3600190509392505050565b600360009054906101000a900460ff1681565b60056020528060005260406000206000915090505481565b600047905090565b600160009054906101000a900473ffffffffffffffffffffffffffffffffffffffff1673ffffffffffffffffffffffffffffffffffffffff163373ffffffffffffffffffffffffffffffffffffffff1614610a08576040517f08c379a00000000000000000000000000000000000000000000000000000000081526004016109ff9061185c565b60405180910390fd5b60005b600480549050811015610b6b57600060048281548110610a2e57610a2d61187c565b5b9060005260206000200160009054906101000a900473ffffffffffffffffffffffffffffffffffffffff16905060006009600560008473ffffffffffffffffffffffffffffffffffffffff1673ffffffffffffffffffffffffffffffffffffffff16815260200190815260200160002054610aa991906118da565b90506000811115610b5657600360019054906101000a900473ffffffffffffffffffffffffffffffffffffffff1673ffffffffffffffffffffffffffffffffffffffff1663a9059cbb83836040518363ffffffff1660e01b8152600401610b1192919061190b565b6020604051808303816000875af1158015610b30573d6000803e3d6000fd5b505050506040513d601f19601f82011682018060405250810190610b549190611960565b505b50508080610b639061198d565b915050610a0b565b50565b60076020528060005260406000206000915054906101000a900460ff1681565b60086020528060005260406000206000915090505481565b600360019054906101000a900473ffffffffffffffffffffffffffffffffffffffff1681565b600160009054906101000a900473ffffffffffffffffffffffffffffffffffffffff1681565b6000600560003373ffffffffffffffffffffffffffffffffffffffff1673ffffffffffffffffffffffffffffffffffffffff16815260200190815260200160002054905060008111610c79576040517f08c379a0000000000000000000000000000000000000000000000000000000008152600401610c7090611a47565b60405180910390fd5b600360019054906101000a900473ffffffffffffffffffffffffffffffffffffffff1673ffffffffffffffffffffffffffffffffffffffff1663a9059cbb33836040518363ffffffff1660e01b8152600401610cd692919061190b565b6020604051808303816000875af1158015610cf5573d6000803e3d6000fd5b505050506040513d601f19601f82011682018060405250810190610d199190611960565b506000600560003373ffffffffffffffffffffffffffffffffffffffff1673ffffffffffffffffffffffffffffffffffffffff168152602001908152602001600020819055506000600760003373ffffffffffffffffffffffffffffffffffffffff1673ffffffffffffffffffffffffffffffffffffffff16815260200190815260200160002060006101000a81548160ff02191690831515021790555050565b600081600860003373ffffffffffffffffffffffffffffffffffffffff1673ffffffffffffffffffffffffffffffffffffffff168152602001908152602001600020541015610e0857600080fd5b81600860003373ffffffffffffffffffffffffffffffffffffffff1673ffffffffffffffffffffffffffffffffffffffff1681526020019081526020016000206000828254610e5791906117dc565b9250508190555081600860008573ffffffffffffffffffffffffffffffffffffffff1673ffffffffffffffffffffffffffffffffffffffff1681526020019081526020016000206000828254610ead91906117a8565b925050819055508273ffffffffffffffffffffffffffffffffffffffff163373ffffffffffffffffffffffffffffffffffffffff167fddf252ad1be2c89b69c2b068fc378daa952ba7f163c4a11628f55a4df523b3ef84604051610f119190611536565b60405180910390a36001905092915050565b60066020528060005260406000206000915054906101000a900460ff1681565b60008111610f86576040517f08c379a0000000000000000000000000000000000000000000000000000000008152600401610f7d90611ab3565b60405180910390fd5b600360019054906101000a900473ffffffffffffffffffffffffffffffffffffffff1673ffffffffffffffffffffffffffffffffffffffff166323b872dd3330846040518463ffffffff1660e01b8152600401610fe593929190611ad3565b6020604051808303816000875af1158015611004573d6000803e3d6000fd5b505050506040513d601f19601f820116820180604052508101906110289190611960565b5080600560003373ffffffffffffffffffffffffffffffffffffffff1673ffffffffffffffffffffffffffffffffffffffff1681526020019081526020016000205461107491906117a8565b600560003373ffffffffffffffffffffffffffffffffffffffff1673ffffffffffffffffffffffffffffffffffffffff16815260200190815260200160002081905550600660003373ffffffffffffffffffffffffffffffffffffffff1673ffffffffffffffffffffffffffffffffffffffff16815260200190815260200160002060009054906101000a900460ff1661116c576004339080600181540180825580915050600190039060005260206000200160009091909190916101000a81548173ffffffffffffffffffffffffffffffffffffffff021916908373ffffffffffffffffffffffffffffffffffffffff1602179055505b6001600760003373ffffffffffffffffffffffffffffffffffffffff1673ffffffffffffffffffffffffffffffffffffffff16815260200190815260200160002060006101000a81548160ff0219169083151502179055506001600660003373ffffffffffffffffffffffffffffffffffffffff1673ffffffffffffffffffffffffffffffffffffffff16815260200190815260200160002060006101000a81548160ff02191690831515021790555050565b6009602052816000526040600020602052806000526040600020600091509150505481565b6000600160009054906101000a900473ffffffffffffffffffffffffffffffffffffffff1673ffffffffffffffffffffffffffffffffffffffff163373ffffffffffffffffffffffffffffffffffffffff16146112d6576040517f08c379a00000000000000000000000000000000000000000000000000000000081526004016112cd90611b56565b60405180910390fd5b8273ffffffffffffffffffffffffffffffffffffffff166108fc839081150290604051600060405180830381858888f1935050505015801561131c573d6000803e3d6000fd5b506001905092915050565b6004818154811061133757600080fd5b906000526020600020016000915054906101000a900473ffffffffffffffffffffffffffffffffffffffff1681565b600081519050919050565b600082825260208201905092915050565b60005b838110156113a0578082015181840152602081019050611385565b60008484015250505050565b6000601f19601f8301169050919050565b60006113c882611366565b6113d28185611371565b93506113e2818560208601611382565b6113eb816113ac565b840191505092915050565b6000602082019050818103600083015261141081846113bd565b905092915050565b600080fd5b600073ffffffffffffffffffffffffffffffffffffffff82169050919050565b60006114488261141d565b9050919050565b6114588161143d565b811461146357600080fd5b50565b6000813590506114758161144f565b92915050565b6000819050919050565b61148e8161147b565b811461149957600080fd5b50565b6000813590506114ab81611485565b92915050565b600080604083850312156114c8576114c7611418565b5b60006114d685828601611466565b92505060206114e78582860161149c565b9150509250929050565b60008115159050919050565b611506816114f1565b82525050565b600060208201905061152160008301846114fd565b92915050565b6115308161147b565b82525050565b600060208201905061154b6000830184611527565b92915050565b60008060006060848603121561156a57611569611418565b5b600061157886828701611466565b935050602061158986828701611466565b925050604061159a8682870161149c565b9150509250925092565b600060ff82169050919050565b6115ba816115a4565b82525050565b60006020820190506115d560008301846115b1565b92915050565b6000602082840312156115f1576115f0611418565b5b60006115ff84828501611466565b91505092915050565b6000819050919050565b600061162d6116286116238461141d565b611608565b61141d565b9050919050565b600061163f82611612565b9050919050565b600061165182611634565b9050919050565b61166181611646565b82525050565b600060208201905061167c6000830184611658565b92915050565b61168b8161143d565b82525050565b60006020820190506116a66000830184611682565b92915050565b6000602082840312156116c2576116c1611418565b5b60006116d08482850161149c565b91505092915050565b600080604083850312156116f0576116ef611418565b5b60006116fe85828601611466565b925050602061170f85828601611466565b9150509250929050565b7f4e487b7100000000000000000000000000000000000000000000000000000000600052602260045260246000fd5b6000600282049050600182168061176057607f821691505b60208210810361177357611772611719565b5b50919050565b7f4e487b7100000000000000000000000000000000000000000000000000000000600052601160045260246000fd5b60006117b38261147b565b91506117be8361147b565b92508282019050808211156117d6576117d5611779565b5b92915050565b60006117e78261147b565b91506117f28361147b565b925082820390508181111561180a57611809611779565b5b92915050565b7f63616c6c6572206d75737420626520746865206f776e65720000000000000000600082015250565b6000611846601883611371565b915061185182611810565b602082019050919050565b6000602082019050818103600083015261187581611839565b9050919050565b7f4e487b7100000000000000000000000000000000000000000000000000000000600052603260045260246000fd5b7f4e487b7100000000000000000000000000000000000000000000000000000000600052601260045260246000fd5b60006118e58261147b565b91506118f08361147b565b925082611900576118ff6118ab565b5b828204905092915050565b60006040820190506119206000830185611682565b61192d6020830184611527565b9392505050565b61193d816114f1565b811461194857600080fd5b50565b60008151905061195a81611934565b92915050565b60006020828403121561197657611975611418565b5b60006119848482850161194b565b91505092915050565b60006119988261147b565b91507fffffffffffffffffffffffffffffffffffffffffffffffffffffffffffffffff82036119ca576119c9611779565b5b600182019050919050565b7f7374616b696e672062616c616e63652063616e6e6f74206265206c657373207460008201527f68616e207a65726f000000000000000000000000000000000000000000000000602082015250565b6000611a31602883611371565b9150611a3c826119d5565b604082019050919050565b60006020820190508181036000830152611a6081611a24565b9050919050565b7f616d6f756e742063616e6e6f7420626520300000000000000000000000000000600082015250565b6000611a9d601283611371565b9150611aa882611a67565b602082019050919050565b60006020820190508181036000830152611acc81611a90565b9050919050565b6000606082019050611ae86000830186611682565b611af56020830185611682565b611b026040830184611527565b949350505050565b7f4f6f707321204e6f7420636f6e7472616374206f776e65720000000000000000600082015250565b6000611b40601883611371565b9150611b4b82611b0a565b602082019050919050565b60006020820190508181036000830152611b6f81611b33565b905091905056fea2646970667358221220f2836ced3db7cdd8e790af44c69d2e4e8af2ae6b8573446fccea9450b28c813664736f6c63430008110033",
  "immutableReferences": {},
  "source": "// SPDX-License-Identifier: MIT\r\npragma solidity ^0.8.0;\r\n\r\nimport \"./UnconsciousEnergyToken.sol\";\r\n\r\ncontract DecentralBank {\r\n    string public name = \"Decentral Bank\";\r\n\r\n\r\n    address public owner;\r\n\r\n    uint256 public totalSupply = 100000000000000000000000; // 1 million tokens\r\n    uint8 public decimals = 18;\r\n\r\n    UnconsciousEnergyToken public UET;\r\n\r\n    address[] public stakers;\r\n\r\n    mapping(address => uint256) public stakingBalance;\r\n    mapping(address => bool) public hasStaked;\r\n    mapping(address => bool) public isStaking;\r\n\r\n    mapping(address => uint256) public balanceOf;\r\n    mapping(address => mapping(address => uint256)) public allowance;\r\n\r\n    modifier onlyOwner() {\r\n     require(msg.sender == owner, 'Oops! Not contract owner');\r\n     _;\r\n\r\n    }\r\n\r\n    constructor(UnconsciousEnergyToken _UET) {\r\n        UET = _UET;\r\n\r\n        owner = msg.sender;\r\n\r\n    \r\n\r\n       //balanceOf[address.this] = totalSupply;\r\n    }\r\n\r\n    event Transfer(address indexed _from, address indexed _to, uint256 _value);\r\n\r\n    event Deposited(address indexed _from, uint256 _amount);\r\n\r\n    function depositMoney() public payable {\r\n        emit Deposited(msg.sender, msg.value);\r\n    }\r\n\r\n    function withdrawMoney(address _to, uint256 _value) public onlyOwner returns(bool success) {\r\n        payable(_to).transfer(_value);\r\n\r\n        return true;\r\n    }\r\n\r\n    function getSmartContractBalance() external view returns(uint256) {\r\n        return address(this).balance;\r\n    }\r\n\r\n\r\n\r\n    event Approval(\r\n        address indexed _owner,\r\n        address indexed _spender,\r\n        uint256 _value\r\n    );\r\n\r\n    function transfer(address _to, uint256 _value)\r\n        public\r\n        returns (bool success)\r\n    {\r\n        // require that the value is greater or equal for transfer\r\n        require(balanceOf[msg.sender] >= _value);\r\n        // transfer the amount and subtract the balance\r\n        balanceOf[msg.sender] -= _value;\r\n        // add the balance\r\n        balanceOf[_to] += _value;\r\n        emit Transfer(msg.sender, _to, _value);\r\n        return true;\r\n    }\r\n\r\n    function approve(address _spender, uint256 _value)\r\n        public\r\n        returns (bool success)\r\n    {\r\n        allowance[msg.sender][_spender] = _value;\r\n        emit Approval(msg.sender, _spender, _value);\r\n        return true;\r\n    }\r\n\r\n    function transferFrom(\r\n        address _from,\r\n        address _to,\r\n        uint256 _value\r\n    ) public returns (bool success) {\r\n        \r\n        require(_value <= balanceOf[_from]);\r\n        require(_value <= allowance[_from][msg.sender]);\r\n        // add the balance for transferFrom\r\n        balanceOf[_to] += _value;\r\n        // subtract the balance for transferFrom\r\n        balanceOf[_from] -= _value;\r\n        allowance[_from][msg.sender] -= _value;\r\n        emit Transfer(_from, _to, _value);\r\n        return true;\r\n    }\r\n\r\n    //staking function\r\n    function depositTokens(uint256 _amount) public {\r\n        require(_amount > 0, \"amount cannot be 0\");\r\n        UET.transferFrom(msg.sender, address(this), _amount);\r\n\r\n        stakingBalance[msg.sender] = stakingBalance[msg.sender] + _amount;\r\n\r\n        if (!hasStaked[msg.sender]) {\r\n            stakers.push(msg.sender);\r\n        }\r\n\r\n        // Update Staking Balance\r\n        isStaking[msg.sender] = true;\r\n        hasStaked[msg.sender] = true;\r\n    }\r\n\r\n    // unstake tokens\r\n    function unstakeTokens() public {\r\n        uint256 balance = stakingBalance[msg.sender];\r\n        // require the amount to be greater than zero\r\n        require(balance > 0, \"staking balance cannot be less than zero\");\r\n\r\n        // transfer the tokens to the specified contract address from our bank\r\n        UET.transfer(msg.sender, balance);\r\n\r\n        // reset staking balance\r\n        stakingBalance[msg.sender] = 0;\r\n\r\n        // Update Staking Status\r\n        isStaking[msg.sender] = false;\r\n    }\r\n\r\n    // issue rewards\r\n    function issueTokens() public {\r\n        // Only owner can call this function\r\n        require(msg.sender == owner, \"caller must be the owner\");\r\n\r\n        // issue tokens to all stakers\r\n        for (uint256 i = 0; i < stakers.length; i++) {\r\n            address recipient = stakers[i];\r\n            uint256 balance = stakingBalance[recipient] / 9; // Devide by 9 to create percentage incentive for stakers\r\n            if (balance > 0) {\r\n                UET.transfer(recipient, balance);\r\n            }\r\n        }\r\n    }\r\n}\r\n",
  "sourcePath": "C:\\Users\\GustavAlbrecht-JU21S\\websocket-projects\\emotiv-websocket-app\\solidity\\src\\contracts\\DecentralBank.sol",
  "compiler": {
    "name": "solc",
    "version": "0.8.17+commit.8df45f5f.Emscripten.clang"
  },
  "schemaVersion": "3.4.7",
  "updatedAt": "2022-10-12T19:11:56.178Z",
  "devdoc": {
    "kind": "dev",
    "methods": {},
    "version": 1
  },
  "userdoc": {
    "kind": "user",
    "methods": {},
    "version": 1
  }
}