{
  "contractName": "ERC721Metadata",
  "abi": [
    {
      "inputs": [
        {
          "internalType": "string",
          "name": "named",
          "type": "string"
        }
      ],
      "stateMutability": "nonpayable",
      "type": "constructor"
    },
    {
      "inputs": [
        {
          "internalType": "bytes4",
          "name": "interfaceID",
          "type": "bytes4"
        }
      ],
      "name": "supportsInterface",
      "outputs": [
        {
          "internalType": "bool",
          "name": "",
          "type": "bool"
        }
      ],
      "stateMutability": "view",
      "type": "function"
    },
    {
      "inputs": [],
      "name": "name",
      "outputs": [
        {
          "internalType": "string",
          "name": "",
          "type": "string"
        }
      ],
      "stateMutability": "view",
      "type": "function"
    }
  ],
  "bytecode": "0x60806040523480156200001157600080fd5b5060405162000abc38038062000abc83398181016040528101906200003791906200031c565b620000687f01ffc9a7a5cef8baa21ed3c5c0d7e23accb804b619e9333b597f47a0d84076e2620000b260201b60201c565b620000997f7feaf19471f34a12a7eaf32d5f3090aa2260ea8624dc8a138e74e0bf0f623076620000b260201b60201c565b8060019081620000aa9190620005b8565b505062000722565b63ffffffff60e01b817bffffffffffffffffffffffffffffffffffffffffffffffffffffffff1916036200011d576040517f08c379a0000000000000000000000000000000000000000000000000000000008152600401620001149062000700565b60405180910390fd5b6001600080837bffffffffffffffffffffffffffffffffffffffffffffffffffffffff19167bffffffffffffffffffffffffffffffffffffffffffffffffffffffff1916815260200190815260200160002060006101000a81548160ff02191690831515021790555050565b6000604051905090565b600080fd5b600080fd5b600080fd5b600080fd5b6000601f19601f8301169050919050565b7f4e487b7100000000000000000000000000000000000000000000000000000000600052604160045260246000fd5b620001f282620001a7565b810181811067ffffffffffffffff82111715620002145762000213620001b8565b5b80604052505050565b60006200022962000189565b9050620002378282620001e7565b919050565b600067ffffffffffffffff8211156200025a5762000259620001b8565b5b6200026582620001a7565b9050602081019050919050565b60005b838110156200029257808201518184015260208101905062000275565b60008484015250505050565b6000620002b5620002af846200023c565b6200021d565b905082815260208101848484011115620002d457620002d3620001a2565b5b620002e184828562000272565b509392505050565b600082601f8301126200030157620003006200019d565b5b8151620003138482602086016200029e565b91505092915050565b60006020828403121562000335576200033462000193565b5b600082015167ffffffffffffffff81111562000356576200035562000198565b5b6200036484828501620002e9565b91505092915050565b600081519050919050565b7f4e487b7100000000000000000000000000000000000000000000000000000000600052602260045260246000fd5b60006002820490506001821680620003c057607f821691505b602082108103620003d657620003d562000378565b5b50919050565b60008190508160005260206000209050919050565b60006020601f8301049050919050565b600082821b905092915050565b600060088302620004407fffffffffffffffffffffffffffffffffffffffffffffffffffffffffffffffff8262000401565b6200044c868362000401565b95508019841693508086168417925050509392505050565b6000819050919050565b6000819050919050565b600062000499620004936200048d8462000464565b6200046e565b62000464565b9050919050565b6000819050919050565b620004b58362000478565b620004cd620004c482620004a0565b8484546200040e565b825550505050565b600090565b620004e4620004d5565b620004f1818484620004aa565b505050565b5b8181101562000519576200050d600082620004da565b600181019050620004f7565b5050565b601f82111562000568576200053281620003dc565b6200053d84620003f1565b810160208510156200054d578190505b620005656200055c85620003f1565b830182620004f6565b50505b505050565b600082821c905092915050565b60006200058d600019846008026200056d565b1980831691505092915050565b6000620005a883836200057a565b9150826002028217905092915050565b620005c3826200036d565b67ffffffffffffffff811115620005df57620005de620001b8565b5b620005eb8254620003a7565b620005f88282856200051d565b600060209050601f8311600181146200063057600084156200061b578287015190505b6200062785826200059a565b86555062000697565b601f1984166200064086620003dc565b60005b828110156200066a5784890151825560018201915060208501945060208101905062000643565b868310156200068a578489015162000686601f8916826200057a565b8355505b6001600288020188555050505b505050505050565b600082825260208201905092915050565b7f496e76616c696420696e74657266616365207265717565737400000000000000600082015250565b6000620006e86019836200069f565b9150620006f582620006b0565b602082019050919050565b600060208201905081810360008301526200071b81620006d9565b9050919050565b61038a80620007326000396000f3fe608060405234801561001057600080fd5b50600436106100365760003560e01c806301ffc9a71461003b57806306fdde031461006b575b600080fd5b610055600480360381019061005091906101df565b610089565b6040516100629190610227565b60405180910390f35b6100736100f0565b60405161008091906102d2565b60405180910390f35b6000806000837bffffffffffffffffffffffffffffffffffffffffffffffffffffffff19167bffffffffffffffffffffffffffffffffffffffffffffffffffffffff1916815260200190815260200160002060009054906101000a900460ff169050919050565b6060600180546100ff90610323565b80601f016020809104026020016040519081016040528092919081815260200182805461012b90610323565b80156101785780601f1061014d57610100808354040283529160200191610178565b820191906000526020600020905b81548152906001019060200180831161015b57829003601f168201915b5050505050905090565b600080fd5b60007fffffffff0000000000000000000000000000000000000000000000000000000082169050919050565b6101bc81610187565b81146101c757600080fd5b50565b6000813590506101d9816101b3565b92915050565b6000602082840312156101f5576101f4610182565b5b6000610203848285016101ca565b91505092915050565b60008115159050919050565b6102218161020c565b82525050565b600060208201905061023c6000830184610218565b92915050565b600081519050919050565b600082825260208201905092915050565b60005b8381101561027c578082015181840152602081019050610261565b60008484015250505050565b6000601f19601f8301169050919050565b60006102a482610242565b6102ae818561024d565b93506102be81856020860161025e565b6102c781610288565b840191505092915050565b600060208201905081810360008301526102ec8184610299565b905092915050565b7f4e487b7100000000000000000000000000000000000000000000000000000000600052602260045260246000fd5b6000600282049050600182168061033b57607f821691505b60208210810361034e5761034d6102f4565b5b5091905056fea264697066735822122082d2a40fdc7c4995d8bd6be859a0d8fca4672ed44916db72a179c870c687a01f64736f6c63430008110033",
  "immutableReferences": {},
  "source": "// SPDX-License-Identifier: MIT\r\npragma solidity ^0.8.0;\r\n\r\nimport './interfaces/IERC721Metadata.sol';\r\nimport './ERC165.sol';\r\n\r\ncontract ERC721Metadata is IERC721Metadata, ERC165{\r\n\r\n    string private _name;\r\n\r\n\r\n\r\n\r\n    constructor(string memory named){\r\n\r\n        \r\n      _registerInterface(bytes4(keccak256('name(bytes4)')));\r\n\r\n    \r\n\r\n        _name = named;\r\n    \r\n\r\n    }\r\n\r\n    function name() external view override returns(string memory) {\r\n\r\n       return _name;\r\n    }\r\n\r\n    \r\n\r\n\r\n}",
  "sourcePath": "C:\\Users\\GustavAlbrecht-JU21S\\websocket-projects\\emotiv-websocket-app\\solidity\\src\\contracts\\ERC721Metadata.sol",
  "compiler": {
    "name": "solc",
    "version": "0.8.17+commit.8df45f5f.Emscripten.clang"
  },
  "schemaVersion": "3.4.7",
  "updatedAt": "2022-10-12T19:11:56.599Z",
  "devdoc": {
    "kind": "dev",
    "methods": {
      "supportsInterface(bytes4)": {
        "details": "Interface identification is specified in ERC-165. This function  uses less than 30,000 gas.",
        "params": {
          "interfaceID": "The interface identifier, as specified in ERC-165"
        },
        "returns": {
          "_0": "`true` if the contract implements `interfaceID` and  `interfaceID` is not 0xffffffff, `false` otherwise"
        }
      }
    },
    "version": 1
  },
  "userdoc": {
    "kind": "user",
    "methods": {
      "supportsInterface(bytes4)": {
        "notice": "Query if a contract implements an interface"
      }
    },
    "version": 1
  }
}