{
  "contractName": "ERC721Enumerable",
  "abi": [
    {
      "inputs": [],
      "stateMutability": "nonpayable",
      "type": "constructor"
    },
    {
      "anonymous": false,
      "inputs": [
        {
          "indexed": true,
          "internalType": "address",
          "name": "_owner",
          "type": "address"
        },
        {
          "indexed": true,
          "internalType": "address",
          "name": "_approved",
          "type": "address"
        },
        {
          "indexed": true,
          "internalType": "uint256",
          "name": "_tokenId",
          "type": "uint256"
        }
      ],
      "name": "Approval",
      "type": "event"
    },
    {
      "anonymous": false,
      "inputs": [
        {
          "indexed": true,
          "internalType": "address",
          "name": "_from",
          "type": "address"
        },
        {
          "indexed": true,
          "internalType": "address",
          "name": "_to",
          "type": "address"
        },
        {
          "indexed": true,
          "internalType": "uint256",
          "name": "_tokenId",
          "type": "uint256"
        }
      ],
      "name": "Transfer",
      "type": "event"
    },
    {
      "inputs": [
        {
          "internalType": "address",
          "name": "_to",
          "type": "address"
        },
        {
          "internalType": "uint256",
          "name": "tokenId",
          "type": "uint256"
        }
      ],
      "name": "approve",
      "outputs": [],
      "stateMutability": "nonpayable",
      "type": "function"
    },
    {
      "inputs": [
        {
          "internalType": "address",
          "name": "_owner",
          "type": "address"
        }
      ],
      "name": "balanceOf",
      "outputs": [
        {
          "internalType": "uint256",
          "name": "",
          "type": "uint256"
        }
      ],
      "stateMutability": "view",
      "type": "function"
    },
    {
      "inputs": [
        {
          "internalType": "uint256",
          "name": "_tokenId",
          "type": "uint256"
        }
      ],
      "name": "ownerOf",
      "outputs": [
        {
          "internalType": "address",
          "name": "",
          "type": "address"
        }
      ],
      "stateMutability": "view",
      "type": "function"
    },
    {
      "inputs": [
        {
          "internalType": "bytes4",
          "name": "interfaceID",
          "type": "bytes4"
        }
      ],
      "name": "supportsInterface",
      "outputs": [
        {
          "internalType": "bool",
          "name": "",
          "type": "bool"
        }
      ],
      "stateMutability": "view",
      "type": "function"
    },
    {
      "inputs": [
        {
          "internalType": "address",
          "name": "_from",
          "type": "address"
        },
        {
          "internalType": "address",
          "name": "_to",
          "type": "address"
        },
        {
          "internalType": "uint256",
          "name": "_tokenId",
          "type": "uint256"
        }
      ],
      "name": "transferFrom",
      "outputs": [],
      "stateMutability": "nonpayable",
      "type": "function"
    },
    {
      "inputs": [
        {
          "internalType": "uint256",
          "name": "index",
          "type": "uint256"
        }
      ],
      "name": "tokenByIndex",
      "outputs": [
        {
          "internalType": "uint256",
          "name": "",
          "type": "uint256"
        }
      ],
      "stateMutability": "view",
      "type": "function"
    },
    {
      "inputs": [
        {
          "internalType": "address",
          "name": "owner",
          "type": "address"
        },
        {
          "internalType": "uint256",
          "name": "index",
          "type": "uint256"
        }
      ],
      "name": "tokenOfOwnerByIndex",
      "outputs": [
        {
          "internalType": "uint256",
          "name": "",
          "type": "uint256"
        }
      ],
      "stateMutability": "view",
      "type": "function"
    },
    {
      "inputs": [],
      "name": "totalSupply",
      "outputs": [
        {
          "internalType": "uint256",
          "name": "",
          "type": "uint256"
        }
      ],
      "stateMutability": "view",
      "type": "function"
    }
  ],
  "bytecode": "0x60806040523480156200001157600080fd5b50620000437f01ffc9a7a5cef8baa21ed3c5c0d7e23accb804b619e9333b597f47a0d84076e26200013360201b60201c565b620000b87f22c82707ba960a14c7592ffb6b8cfaa073fed0048a84cc7fa41f6b5bd8e7f2e47f3a6eb71757dfc6e784c1459d26270140c2c147d95ca985c80026fc5301c3eca17f8a7e378434598edc36d108689a030cbc9d7d465de4f74c71bae1028eed6a881b18186200013360201b60201c565b6200012d7f8230223f691b981717299fae9549350a0d894555723531f02108b1f522c1a7977f6da5e1284143cdd2d15038a59bde3be031250f00291d64494c12d967b3a4e0c37fc53637662700e6c65104059db8bba34439e0c32483ab7c34e3ccae52c739549518186200013360201b60201c565b6200028d565b63ffffffff60e01b817bffffffffffffffffffffffffffffffffffffffffffffffffffffffff1916036200019e576040517f08c379a000000000000000000000000000000000000000000000000000000000815260040162000195906200026b565b60405180910390fd5b6001600080837bffffffffffffffffffffffffffffffffffffffffffffffffffffffff19167bffffffffffffffffffffffffffffffffffffffffffffffffffffffff1916815260200190815260200160002060006101000a81548160ff02191690831515021790555050565b600082825260208201905092915050565b7f496e76616c696420696e74657266616365207265717565737400000000000000600082015250565b6000620002536019836200020a565b915062000260826200021b565b602082019050919050565b60006020820190508181036000830152620002868162000244565b9050919050565b611194806200029d6000396000f3fe608060405234801561001057600080fd5b50600436106100885760003560e01c80632f745c591161005b5780632f745c59146101135780634f6ccce7146101435780636352211e1461017357806370a08231146101a357610088565b806301ffc9a71461008d578063095ea7b3146100bd57806318160ddd146100d957806323b872dd146100f7575b600080fd5b6100a760048036038101906100a29190610a31565b6101d3565b6040516100b49190610a79565b60405180910390f35b6100d760048036038101906100d29190610b28565b61023a565b005b6100e16103d5565b6040516100ee9190610b77565b60405180910390f35b610111600480360381019061010c9190610b92565b6103e2565b005b61012d60048036038101906101289190610b28565b610405565b60405161013a9190610b77565b60405180910390f35b61015d60048036038101906101589190610be5565b6104b5565b60405161016a9190610b77565b60405180910390f35b61018d60048036038101906101889190610be5565b610526565b60405161019a9190610c21565b60405180910390f35b6101bd60048036038101906101b89190610c3c565b6105d7565b6040516101ca9190610b77565b60405180910390f35b6000806000837bffffffffffffffffffffffffffffffffffffffffffffffffffffffff19167bffffffffffffffffffffffffffffffffffffffffffffffffffffffff1916815260200190815260200160002060009054906101000a900460ff169050919050565b600061024582610526565b90508073ffffffffffffffffffffffffffffffffffffffff168373ffffffffffffffffffffffffffffffffffffffff16036102b5576040517f08c379a00000000000000000000000000000000000000000000000000000000081526004016102ac90610cec565b60405180910390fd5b8073ffffffffffffffffffffffffffffffffffffffff163373ffffffffffffffffffffffffffffffffffffffff1614610323576040517f08c379a000000000000000000000000000000000000000000000000000000000815260040161031a90610d7e565b60405180910390fd5b826003600084815260200190815260200160002060006101000a81548173ffffffffffffffffffffffffffffffffffffffff021916908373ffffffffffffffffffffffffffffffffffffffff160217905550818373ffffffffffffffffffffffffffffffffffffffff168273ffffffffffffffffffffffffffffffffffffffff167f8c5be1e5ebec7d5bd14f71427d1e84f3dd0314c0f7b2291e5b200ac8c7c3b92560405160405180910390a4505050565b6000600480549050905090565b6103ec338261068e565b6103f557600080fd5b61040083838361071d565b505050565b6000610410836105d7565b8210610451576040517f08c379a000000000000000000000000000000000000000000000000000000000815260040161044890610dea565b60405180910390fd5b600660008473ffffffffffffffffffffffffffffffffffffffff1673ffffffffffffffffffffffffffffffffffffffff16815260200190815260200160002082815481106104a2576104a1610e0a565b5b9060005260206000200154905092915050565b60006104bf6103d5565b8210610500576040517f08c379a00000000000000000000000000000000000000000000000000000000081526004016104f790610e85565b60405180910390fd5b6004828154811061051457610513610e0a565b5b90600052602060002001549050919050565b6000806001600084815260200190815260200160002060009054906101000a900473ffffffffffffffffffffffffffffffffffffffff169050600073ffffffffffffffffffffffffffffffffffffffff168173ffffffffffffffffffffffffffffffffffffffff16036105ce576040517f08c379a00000000000000000000000000000000000000000000000000000000081526004016105c590610f17565b60405180910390fd5b80915050919050565b60008073ffffffffffffffffffffffffffffffffffffffff168273ffffffffffffffffffffffffffffffffffffffff1603610647576040517f08c379a000000000000000000000000000000000000000000000000000000000815260040161063e90610f17565b60405180910390fd5b600260008373ffffffffffffffffffffffffffffffffffffffff1673ffffffffffffffffffffffffffffffffffffffff168152602001908152602001600020549050919050565b600061069982610962565b6106d8576040517f08c379a00000000000000000000000000000000000000000000000000000000081526004016106cf90610f83565b60405180910390fd5b60006106e383610526565b90508073ffffffffffffffffffffffffffffffffffffffff168473ffffffffffffffffffffffffffffffffffffffff161491505092915050565b600073ffffffffffffffffffffffffffffffffffffffff168273ffffffffffffffffffffffffffffffffffffffff160361078c576040517f08c379a000000000000000000000000000000000000000000000000000000000815260040161078390611015565b60405180910390fd5b8273ffffffffffffffffffffffffffffffffffffffff166107ac82610526565b73ffffffffffffffffffffffffffffffffffffffff1614610802576040517f08c379a00000000000000000000000000000000000000000000000000000000081526004016107f9906110a7565b60405180910390fd5b6001600260008573ffffffffffffffffffffffffffffffffffffffff1673ffffffffffffffffffffffffffffffffffffffff168152602001908152602001600020600082825461085291906110f6565b925050819055506001600260008473ffffffffffffffffffffffffffffffffffffffff1673ffffffffffffffffffffffffffffffffffffffff16815260200190815260200160002060008282546108a9919061112a565b92505081905550816001600083815260200190815260200160002060006101000a81548173ffffffffffffffffffffffffffffffffffffffff021916908373ffffffffffffffffffffffffffffffffffffffff160217905550808273ffffffffffffffffffffffffffffffffffffffff168473ffffffffffffffffffffffffffffffffffffffff167fddf252ad1be2c89b69c2b068fc378daa952ba7f163c4a11628f55a4df523b3ef60405160405180910390a4505050565b6000806001600084815260200190815260200160002060009054906101000a900473ffffffffffffffffffffffffffffffffffffffff169050600073ffffffffffffffffffffffffffffffffffffffff168173ffffffffffffffffffffffffffffffffffffffff161415915050919050565b600080fd5b60007fffffffff0000000000000000000000000000000000000000000000000000000082169050919050565b610a0e816109d9565b8114610a1957600080fd5b50565b600081359050610a2b81610a05565b92915050565b600060208284031215610a4757610a466109d4565b5b6000610a5584828501610a1c565b91505092915050565b60008115159050919050565b610a7381610a5e565b82525050565b6000602082019050610a8e6000830184610a6a565b92915050565b600073ffffffffffffffffffffffffffffffffffffffff82169050919050565b6000610abf82610a94565b9050919050565b610acf81610ab4565b8114610ada57600080fd5b50565b600081359050610aec81610ac6565b92915050565b6000819050919050565b610b0581610af2565b8114610b1057600080fd5b50565b600081359050610b2281610afc565b92915050565b60008060408385031215610b3f57610b3e6109d4565b5b6000610b4d85828601610add565b9250506020610b5e85828601610b13565b9150509250929050565b610b7181610af2565b82525050565b6000602082019050610b8c6000830184610b68565b92915050565b600080600060608486031215610bab57610baa6109d4565b5b6000610bb986828701610add565b9350506020610bca86828701610add565b9250506040610bdb86828701610b13565b9150509250925092565b600060208284031215610bfb57610bfa6109d4565b5b6000610c0984828501610b13565b91505092915050565b610c1b81610ab4565b82525050565b6000602082019050610c366000830184610c12565b92915050565b600060208284031215610c5257610c516109d4565b5b6000610c6084828501610add565b91505092915050565b600082825260208201905092915050565b7f4572726f72202d20617070726f76616c20746f2063757272656e74206f776e6560008201527f7200000000000000000000000000000000000000000000000000000000000000602082015250565b6000610cd6602183610c69565b9150610ce182610c7a565b604082019050919050565b60006020820190508181036000830152610d0581610cc9565b9050919050565b7f43757272656e742063616c6c6572206973206e6f7420746865206f776e65722060008201527f6f662074686520746f6b656e0000000000000000000000000000000000000000602082015250565b6000610d68602c83610c69565b9150610d7382610d0c565b604082019050919050565b60006020820190508181036000830152610d9781610d5b565b9050919050565b7f4f776e657220696e646578206973206f7574206f6620626f756e647321000000600082015250565b6000610dd4601d83610c69565b9150610ddf82610d9e565b602082019050919050565b60006020820190508181036000830152610e0381610dc7565b9050919050565b7f4e487b7100000000000000000000000000000000000000000000000000000000600052603260045260246000fd5b7f476c6f62616c20696e646578206973206f7574206f6620626f756e6473210000600082015250565b6000610e6f601e83610c69565b9150610e7a82610e39565b602082019050919050565b60006020820190508181036000830152610e9e81610e62565b9050919050565b7f6f776e657220717565727920666f72206e6f6e2d6578697374656e7420746f6b60008201527f656e000000000000000000000000000000000000000000000000000000000000602082015250565b6000610f01602283610c69565b9150610f0c82610ea5565b604082019050919050565b60006020820190508181036000830152610f3081610ef4565b9050919050565b7f746f6b656e20646f6573206e6f74206578697374000000000000000000000000600082015250565b6000610f6d601483610c69565b9150610f7882610f37565b602082019050919050565b60006020820190508181036000830152610f9c81610f60565b9050919050565b7f4572726f72202d20455243373231205472616e7366657220746f207a65726f2060008201527f6164647265737300000000000000000000000000000000000000000000000000602082015250565b6000610fff602783610c69565b915061100a82610fa3565b604082019050919050565b6000602082019050818103600083015261102e81610ff2565b9050919050565b7f4552433732313a20546f6b656e206e6f74206f776e656420627920616464726560008201527f7373000000000000000000000000000000000000000000000000000000000000602082015250565b6000611091602283610c69565b915061109c82611035565b604082019050919050565b600060208201905081810360008301526110c081611084565b9050919050565b7f4e487b7100000000000000000000000000000000000000000000000000000000600052601160045260246000fd5b600061110182610af2565b915061110c83610af2565b9250828203905081811115611124576111236110c7565b5b92915050565b600061113582610af2565b915061114083610af2565b9250828201905080821115611158576111576110c7565b5b9291505056fea26469706673582212202bae2004208c56bfc3b74c639cbf2aecde98b80c2ff92861b46a340b094f6b3964736f6c63430008110033",
  "immutableReferences": {},
  "source": "// SPDX-License-Identifier: MIT\r\npragma solidity ^0.8.0;\r\n\r\nimport './ERC721.sol';\r\nimport './interfaces/IERC721Enumerable.sol';\r\n\r\ncontract ERC721Enumerable is IERC721Enumerable, ERC721{\r\n\r\nuint256[] private _allTokens;\r\n\r\nmapping(uint256 => uint256) private _allTokensIndex;\r\n\r\nmapping(address => uint256[]) private _ownedTokens;\r\n\r\nmapping(uint256 => uint256) private _ownedTokensIndex;  \r\n\r\n constructor(){\r\n      _registerInterface(bytes4(keccak256('totalSupply(bytes4)')^\r\n      keccak256('tokenByIndex(bytes4)')^keccak256('tokenOfOwnerByIndex(bytes4)')));\r\n\r\n    }\r\n\r\n\r\n\r\n     // @notice Count NFTs tracked by this contract\r\n    // @return A count of valid NFTs tracked by this contract, where each one of\r\n    //  them has an assigned and queryable owner not equal to the zero address\r\n   /* function totalSupply() external view returns (uint256){\r\n        \r\n\r\n        return _allTokens.length;\r\n    }*/\r\n\r\n    // @notice Enumerate valid NFTs\r\n    // @dev Throws if `_index` >= `totalSupply()`.\r\n    // @param _index A counter less than `totalSupply()`\r\n    // @return The token identifier for the `_index`th NFT,\r\n    //  (sort order not specified)\r\n   // function tokenByIndex(uint256 _index) external view returns (uint256);\r\n\r\n    // @notice Enumerate NFTs assigned to an owner\r\n    // @dev Throws if `_index` >= `balanceOf(_owner)` or if\r\n    //  `_owner` is the zero address, representing invalid NFTs.\r\n    // @param _owner An address where we are interested in NFTs owned by them\r\n    // @param _index A counter less than `balanceOf(_owner)`\r\n    // @return The token identifier for the `_index`th NFT assigned to `_owner`,\r\n    //   (sort order not specified)\r\n    //function tokenOfOwnerByIndex(address _owner, uint256 _index) external view returns (uint256);\r\n\r\n    function _mint(address to, uint256 tokenId) internal override(ERC721){\r\n      super._mint(to, tokenId);\r\n      // 1. Add tokens to the owner\r\n      // 2. All tokens to our total supply - to all Tokens\r\n      _addTokensToAllTokenEnumeration(tokenId);\r\n      _addTokensToOwnerEnumeration(to, tokenId);\r\n    }\r\n\r\n     // Add tokens to the _alltokens array and set the position of the tokens indexes\r\n    function _addTokensToAllTokenEnumeration(uint256 tokenId) private {\r\n\r\n        _allTokensIndex[tokenId] = _allTokens.length;\r\n        _allTokens.push(tokenId);\r\n\r\n    }\r\n\r\n    function _addTokensToOwnerEnumeration(address to, uint256 tokenId) private {\r\n       // 1. Add address and token id to the _ownerTokens\r\n       // 2. ownedTokensIndex token Id set to address of ownedTokens position\r\n       // We want to execute this function with minting\r\n\r\n    \r\n\r\n       _ownedTokensIndex[tokenId] = _ownedTokens[to].length;\r\n\r\n        _ownedTokens[to].push(tokenId);\r\n    }\r\n\r\n    function tokenByIndex(uint256 index) public override view returns(uint256) {\r\n         \r\n         require(index < totalSupply(), 'Global index is out of bounds!');\r\n        return _allTokens[index];\r\n    }\r\n\r\n    function tokenOfOwnerByIndex(address owner, uint index) public override view returns(uint256){\r\n        require(index < balanceOf(owner), 'Owner index is out of bounds!');\r\n        return _ownedTokens[owner][index];\r\n    }\r\n\r\n    //return the total supply of the _allTokens array\r\n    function totalSupply() public view returns(uint256){\r\n        \r\n\r\n    return _allTokens.length;\r\n\r\n    }\r\n}",
  "sourcePath": "C:\\Users\\GustavAlbrecht-JU21S\\websocket-projects\\emotiv-websocket-app\\solidity\\src\\contracts\\ERC721Enumerable.sol",
  "compiler": {
    "name": "solc",
    "version": "0.8.17+commit.8df45f5f.Emscripten.clang"
  },
  "schemaVersion": "3.4.7",
  "updatedAt": "2022-10-12T19:11:56.530Z",
  "devdoc": {
    "kind": "dev",
    "methods": {
      "ownerOf(uint256)": {
        "details": "NFTs assigned to zero address are considered invalid, and queries  about them do throw.",
        "params": {
          "_tokenId": "The identifier for an NFT"
        },
        "returns": {
          "_0": "The address of the owner of the NFT"
        }
      },
      "supportsInterface(bytes4)": {
        "details": "Interface identification is specified in ERC-165. This function  uses less than 30,000 gas.",
        "params": {
          "interfaceID": "The interface identifier, as specified in ERC-165"
        },
        "returns": {
          "_0": "`true` if the contract implements `interfaceID` and  `interfaceID` is not 0xffffffff, `false` otherwise"
        }
      }
    },
    "version": 1
  },
  "userdoc": {
    "kind": "user",
    "methods": {
      "ownerOf(uint256)": {
        "notice": "Find the owner of an NFT"
      },
      "supportsInterface(bytes4)": {
        "notice": "Query if a contract implements an interface"
      }
    },
    "version": 1
  }
}