{
  "contractName": "Metawise",
  "abi": [
    {
      "inputs": [],
      "stateMutability": "nonpayable",
      "type": "constructor"
    },
    {
      "anonymous": false,
      "inputs": [
        {
          "indexed": true,
          "internalType": "address",
          "name": "_owner",
          "type": "address"
        },
        {
          "indexed": true,
          "internalType": "address",
          "name": "_approved",
          "type": "address"
        },
        {
          "indexed": true,
          "internalType": "uint256",
          "name": "_tokenId",
          "type": "uint256"
        }
      ],
      "name": "Approval",
      "type": "event"
    },
    {
      "anonymous": false,
      "inputs": [
        {
          "indexed": true,
          "internalType": "address",
          "name": "_from",
          "type": "address"
        },
        {
          "indexed": true,
          "internalType": "address",
          "name": "_to",
          "type": "address"
        },
        {
          "indexed": true,
          "internalType": "uint256",
          "name": "_tokenId",
          "type": "uint256"
        }
      ],
      "name": "Transfer",
      "type": "event"
    },
    {
      "inputs": [
        {
          "internalType": "address",
          "name": "_to",
          "type": "address"
        },
        {
          "internalType": "uint256",
          "name": "tokenId",
          "type": "uint256"
        }
      ],
      "name": "approve",
      "outputs": [],
      "stateMutability": "nonpayable",
      "type": "function"
    },
    {
      "inputs": [
        {
          "internalType": "address",
          "name": "_owner",
          "type": "address"
        }
      ],
      "name": "balanceOf",
      "outputs": [
        {
          "internalType": "uint256",
          "name": "",
          "type": "uint256"
        }
      ],
      "stateMutability": "view",
      "type": "function"
    },
    {
      "inputs": [
        {
          "internalType": "uint256",
          "name": "",
          "type": "uint256"
        }
      ],
      "name": "metawiseNFT",
      "outputs": [
        {
          "internalType": "string",
          "name": "",
          "type": "string"
        }
      ],
      "stateMutability": "view",
      "type": "function"
    },
    {
      "inputs": [],
      "name": "name",
      "outputs": [
        {
          "internalType": "string",
          "name": "",
          "type": "string"
        }
      ],
      "stateMutability": "view",
      "type": "function"
    },
    {
      "inputs": [
        {
          "internalType": "uint256",
          "name": "_tokenId",
          "type": "uint256"
        }
      ],
      "name": "ownerOf",
      "outputs": [
        {
          "internalType": "address",
          "name": "",
          "type": "address"
        }
      ],
      "stateMutability": "view",
      "type": "function"
    },
    {
      "inputs": [
        {
          "internalType": "bytes4",
          "name": "interfaceID",
          "type": "bytes4"
        }
      ],
      "name": "supportsInterface",
      "outputs": [
        {
          "internalType": "bool",
          "name": "",
          "type": "bool"
        }
      ],
      "stateMutability": "view",
      "type": "function"
    },
    {
      "inputs": [
        {
          "internalType": "uint256",
          "name": "index",
          "type": "uint256"
        }
      ],
      "name": "tokenByIndex",
      "outputs": [
        {
          "internalType": "uint256",
          "name": "",
          "type": "uint256"
        }
      ],
      "stateMutability": "view",
      "type": "function"
    },
    {
      "inputs": [
        {
          "internalType": "address",
          "name": "owner",
          "type": "address"
        },
        {
          "internalType": "uint256",
          "name": "index",
          "type": "uint256"
        }
      ],
      "name": "tokenOfOwnerByIndex",
      "outputs": [
        {
          "internalType": "uint256",
          "name": "",
          "type": "uint256"
        }
      ],
      "stateMutability": "view",
      "type": "function"
    },
    {
      "inputs": [],
      "name": "totalSupply",
      "outputs": [
        {
          "internalType": "uint256",
          "name": "",
          "type": "uint256"
        }
      ],
      "stateMutability": "view",
      "type": "function"
    },
    {
      "inputs": [
        {
          "internalType": "address",
          "name": "_from",
          "type": "address"
        },
        {
          "internalType": "address",
          "name": "_to",
          "type": "address"
        },
        {
          "internalType": "uint256",
          "name": "_tokenId",
          "type": "uint256"
        }
      ],
      "name": "transferFrom",
      "outputs": [],
      "stateMutability": "nonpayable",
      "type": "function"
    },
    {
      "inputs": [
        {
          "internalType": "string",
          "name": "_metawiseNFT",
          "type": "string"
        }
      ],
      "name": "mint",
      "outputs": [],
      "stateMutability": "nonpayable",
      "type": "function"
    }
  ],
  "bytecode": "0x60806040523480156200001157600080fd5b506040518060400160405280600b81526020017f4d657461776973654e4654000000000000000000000000000000000000000000815250806200007a7f01ffc9a7a5cef8baa21ed3c5c0d7e23accb804b619e9333b597f47a0d84076e2620001af60201b60201c565b620000ab7f7feaf19471f34a12a7eaf32d5f3090aa2260ea8624dc8a138e74e0bf0f623076620001af60201b60201c565b8060019081620000bc919062000500565b5050620001337f22c82707ba960a14c7592ffb6b8cfaa073fed0048a84cc7fa41f6b5bd8e7f2e47f3a6eb71757dfc6e784c1459d26270140c2c147d95ca985c80026fc5301c3eca17f8a7e378434598edc36d108689a030cbc9d7d465de4f74c71bae1028eed6a881b1818620001af60201b60201c565b620001a87f8230223f691b981717299fae9549350a0d894555723531f02108b1f522c1a7977f6da5e1284143cdd2d15038a59bde3be031250f00291d64494c12d967b3a4e0c37fc53637662700e6c65104059db8bba34439e0c32483ab7c34e3ccae52c73954951818620001af60201b60201c565b506200066a565b63ffffffff60e01b817bffffffffffffffffffffffffffffffffffffffffffffffffffffffff1916036200021a576040517f08c379a0000000000000000000000000000000000000000000000000000000008152600401620002119062000648565b60405180910390fd5b6001600080837bffffffffffffffffffffffffffffffffffffffffffffffffffffffff19167bffffffffffffffffffffffffffffffffffffffffffffffffffffffff1916815260200190815260200160002060006101000a81548160ff02191690831515021790555050565b600081519050919050565b7f4e487b7100000000000000000000000000000000000000000000000000000000600052604160045260246000fd5b7f4e487b7100000000000000000000000000000000000000000000000000000000600052602260045260246000fd5b600060028204905060018216806200030857607f821691505b6020821081036200031e576200031d620002c0565b5b50919050565b60008190508160005260206000209050919050565b60006020601f8301049050919050565b600082821b905092915050565b600060088302620003887fffffffffffffffffffffffffffffffffffffffffffffffffffffffffffffffff8262000349565b62000394868362000349565b95508019841693508086168417925050509392505050565b6000819050919050565b6000819050919050565b6000620003e1620003db620003d584620003ac565b620003b6565b620003ac565b9050919050565b6000819050919050565b620003fd83620003c0565b620004156200040c82620003e8565b84845462000356565b825550505050565b600090565b6200042c6200041d565b62000439818484620003f2565b505050565b5b8181101562000461576200045560008262000422565b6001810190506200043f565b5050565b601f821115620004b0576200047a8162000324565b620004858462000339565b8101602085101562000495578190505b620004ad620004a48562000339565b8301826200043e565b50505b505050565b600082821c905092915050565b6000620004d560001984600802620004b5565b1980831691505092915050565b6000620004f08383620004c2565b9150826002028217905092915050565b6200050b8262000286565b67ffffffffffffffff81111562000527576200052662000291565b5b620005338254620002ef565b6200054082828562000465565b600060209050601f83116001811462000578576000841562000563578287015190505b6200056f8582620004e2565b865550620005df565b601f198416620005888662000324565b60005b82811015620005b2578489015182556001820191506020850194506020810190506200058b565b86831015620005d25784890151620005ce601f891682620004c2565b8355505b6001600288020188555050505b505050505050565b600082825260208201905092915050565b7f496e76616c696420696e74657266616365207265717565737400000000000000600082015250565b600062000630601983620005e7565b91506200063d82620005f8565b602082019050919050565b60006020820190508181036000830152620006638162000621565b9050919050565b611e37806200067a6000396000f3fe608060405234801561001057600080fd5b50600436106100a95760003560e01c80632f745c59116100715780632f745c59146101525780634f6ccce7146101825780636352211e146101b257806370a08231146101e2578063d85d3d2714610212578063de93583a1461022e576100a9565b806301ffc9a7146100ae57806306fdde03146100de578063095ea7b3146100fc57806318160ddd1461011857806323b872dd14610136575b600080fd5b6100c860048036038101906100c39190610ff4565b61025e565b6040516100d5919061103c565b60405180910390f35b6100e66102c5565b6040516100f391906110e7565b60405180910390f35b6101166004803603810190610111919061119d565b610357565b005b6101206104f2565b60405161012d91906111ec565b60405180910390f35b610150600480360381019061014b9190611207565b6104ff565b005b61016c6004803603810190610167919061119d565b610522565b60405161017991906111ec565b60405180910390f35b61019c6004803603810190610197919061125a565b6105d2565b6040516101a991906111ec565b60405180910390f35b6101cc60048036038101906101c7919061125a565b610643565b6040516101d99190611296565b60405180910390f35b6101fc60048036038101906101f791906112b1565b6106f4565b60405161020991906111ec565b60405180910390f35b61022c60048036038101906102279190611413565b6107ab565b005b6102486004803603810190610243919061125a565b6108a7565b60405161025591906110e7565b60405180910390f35b6000806000837bffffffffffffffffffffffffffffffffffffffffffffffffffffffff19167bffffffffffffffffffffffffffffffffffffffffffffffffffffffff1916815260200190815260200160002060009054906101000a900460ff169050919050565b6060600180546102d49061148b565b80601f01602080910402602001604051908101604052809291908181526020018280546103009061148b565b801561034d5780601f106103225761010080835404028352916020019161034d565b820191906000526020600020905b81548152906001019060200180831161033057829003601f168201915b5050505050905090565b600061036282610643565b90508073ffffffffffffffffffffffffffffffffffffffff168373ffffffffffffffffffffffffffffffffffffffff16036103d2576040517f08c379a00000000000000000000000000000000000000000000000000000000081526004016103c99061152e565b60405180910390fd5b8073ffffffffffffffffffffffffffffffffffffffff163373ffffffffffffffffffffffffffffffffffffffff1614610440576040517f08c379a0000000000000000000000000000000000000000000000000000000008152600401610437906115c0565b60405180910390fd5b826004600084815260200190815260200160002060006101000a81548173ffffffffffffffffffffffffffffffffffffffff021916908373ffffffffffffffffffffffffffffffffffffffff160217905550818373ffffffffffffffffffffffffffffffffffffffff168273ffffffffffffffffffffffffffffffffffffffff167f8c5be1e5ebec7d5bd14f71427d1e84f3dd0314c0f7b2291e5b200ac8c7c3b92560405160405180910390a4505050565b6000600580549050905090565b6105093382610953565b61051257600080fd5b61051d8383836109e2565b505050565b600061052d836106f4565b821061056e576040517f08c379a00000000000000000000000000000000000000000000000000000000081526004016105659061162c565b60405180910390fd5b600760008473ffffffffffffffffffffffffffffffffffffffff1673ffffffffffffffffffffffffffffffffffffffff16815260200190815260200160002082815481106105bf576105be61164c565b5b9060005260206000200154905092915050565b60006105dc6104f2565b821061061d576040517f08c379a0000000000000000000000000000000000000000000000000000000008152600401610614906116c7565b60405180910390fd5b600582815481106106315761063061164c565b5b90600052602060002001549050919050565b6000806002600084815260200190815260200160002060009054906101000a900473ffffffffffffffffffffffffffffffffffffffff169050600073ffffffffffffffffffffffffffffffffffffffff168173ffffffffffffffffffffffffffffffffffffffff16036106eb576040517f08c379a00000000000000000000000000000000000000000000000000000000081526004016106e290611759565b60405180910390fd5b80915050919050565b60008073ffffffffffffffffffffffffffffffffffffffff168273ffffffffffffffffffffffffffffffffffffffff1603610764576040517f08c379a000000000000000000000000000000000000000000000000000000000815260040161075b90611759565b60405180910390fd5b600360008373ffffffffffffffffffffffffffffffffffffffff1673ffffffffffffffffffffffffffffffffffffffff168152602001908152602001600020549050919050565b600a816040516107bb91906117b5565b908152602001604051809103902060009054906101000a900460ff1615610817576040517f08c379a000000000000000000000000000000000000000000000000000000000815260040161080e9061183e565b60405180910390fd5b60098190806001815401808255809150506001900390600052602060002001600090919091909150908161084b9190611a0a565b50600060016009805490506108609190611b0b565b905061086c3382610c27565b6001600a8360405161087e91906117b5565b908152602001604051809103902060006101000a81548160ff0219169083151502179055505050565b600981815481106108b757600080fd5b9060005260206000200160009150905080546108d29061148b565b80601f01602080910402602001604051908101604052809291908181526020018280546108fe9061148b565b801561094b5780601f106109205761010080835404028352916020019161094b565b820191906000526020600020905b81548152906001019060200180831161092e57829003601f168201915b505050505081565b600061095e82610c48565b61099d576040517f08c379a000000000000000000000000000000000000000000000000000000000815260040161099490611b8b565b60405180910390fd5b60006109a883610643565b90508073ffffffffffffffffffffffffffffffffffffffff168473ffffffffffffffffffffffffffffffffffffffff161491505092915050565b600073ffffffffffffffffffffffffffffffffffffffff168273ffffffffffffffffffffffffffffffffffffffff1603610a51576040517f08c379a0000000000000000000000000000000000000000000000000000000008152600401610a4890611c1d565b60405180910390fd5b8273ffffffffffffffffffffffffffffffffffffffff16610a7182610643565b73ffffffffffffffffffffffffffffffffffffffff1614610ac7576040517f08c379a0000000000000000000000000000000000000000000000000000000008152600401610abe90611caf565b60405180910390fd5b6001600360008573ffffffffffffffffffffffffffffffffffffffff1673ffffffffffffffffffffffffffffffffffffffff1681526020019081526020016000206000828254610b179190611b0b565b925050819055506001600360008473ffffffffffffffffffffffffffffffffffffffff1673ffffffffffffffffffffffffffffffffffffffff1681526020019081526020016000206000828254610b6e9190611ccf565b92505081905550816002600083815260200190815260200160002060006101000a81548173ffffffffffffffffffffffffffffffffffffffff021916908373ffffffffffffffffffffffffffffffffffffffff160217905550808273ffffffffffffffffffffffffffffffffffffffff168473ffffffffffffffffffffffffffffffffffffffff167fddf252ad1be2c89b69c2b068fc378daa952ba7f163c4a11628f55a4df523b3ef60405160405180910390a4505050565b610c318282610cba565b610c3a81610e7b565b610c448282610ec4565b5050565b6000806002600084815260200190815260200160002060009054906101000a900473ffffffffffffffffffffffffffffffffffffffff169050600073ffffffffffffffffffffffffffffffffffffffff168173ffffffffffffffffffffffffffffffffffffffff161415915050919050565b600073ffffffffffffffffffffffffffffffffffffffff168273ffffffffffffffffffffffffffffffffffffffff1603610d29576040517f08c379a0000000000000000000000000000000000000000000000000000000008152600401610d2090611d75565b60405180910390fd5b610d3281610c48565b15610d72576040517f08c379a0000000000000000000000000000000000000000000000000000000008152600401610d6990611de1565b60405180910390fd5b816002600083815260200190815260200160002060006101000a81548173ffffffffffffffffffffffffffffffffffffffff021916908373ffffffffffffffffffffffffffffffffffffffff1602179055506001600360008473ffffffffffffffffffffffffffffffffffffffff1673ffffffffffffffffffffffffffffffffffffffff1681526020019081526020016000206000828254610e149190611ccf565b92505081905550808273ffffffffffffffffffffffffffffffffffffffff16600073ffffffffffffffffffffffffffffffffffffffff167fddf252ad1be2c89b69c2b068fc378daa952ba7f163c4a11628f55a4df523b3ef60405160405180910390a45050565b6005805490506006600083815260200190815260200160002081905550600581908060018154018082558091505060019003906000526020600020016000909190919091505550565b600760008373ffffffffffffffffffffffffffffffffffffffff1673ffffffffffffffffffffffffffffffffffffffff168152602001908152602001600020805490506008600083815260200190815260200160002081905550600760008373ffffffffffffffffffffffffffffffffffffffff1673ffffffffffffffffffffffffffffffffffffffff1681526020019081526020016000208190806001815401808255809150506001900390600052602060002001600090919091909150555050565b6000604051905090565b600080fd5b600080fd5b60007fffffffff0000000000000000000000000000000000000000000000000000000082169050919050565b610fd181610f9c565b8114610fdc57600080fd5b50565b600081359050610fee81610fc8565b92915050565b60006020828403121561100a57611009610f92565b5b600061101884828501610fdf565b91505092915050565b60008115159050919050565b61103681611021565b82525050565b6000602082019050611051600083018461102d565b92915050565b600081519050919050565b600082825260208201905092915050565b60005b83811015611091578082015181840152602081019050611076565b60008484015250505050565b6000601f19601f8301169050919050565b60006110b982611057565b6110c38185611062565b93506110d3818560208601611073565b6110dc8161109d565b840191505092915050565b6000602082019050818103600083015261110181846110ae565b905092915050565b600073ffffffffffffffffffffffffffffffffffffffff82169050919050565b600061113482611109565b9050919050565b61114481611129565b811461114f57600080fd5b50565b6000813590506111618161113b565b92915050565b6000819050919050565b61117a81611167565b811461118557600080fd5b50565b60008135905061119781611171565b92915050565b600080604083850312156111b4576111b3610f92565b5b60006111c285828601611152565b92505060206111d385828601611188565b9150509250929050565b6111e681611167565b82525050565b600060208201905061120160008301846111dd565b92915050565b6000806000606084860312156112205761121f610f92565b5b600061122e86828701611152565b935050602061123f86828701611152565b925050604061125086828701611188565b9150509250925092565b6000602082840312156112705761126f610f92565b5b600061127e84828501611188565b91505092915050565b61129081611129565b82525050565b60006020820190506112ab6000830184611287565b92915050565b6000602082840312156112c7576112c6610f92565b5b60006112d584828501611152565b91505092915050565b600080fd5b600080fd5b7f4e487b7100000000000000000000000000000000000000000000000000000000600052604160045260246000fd5b6113208261109d565b810181811067ffffffffffffffff8211171561133f5761133e6112e8565b5b80604052505050565b6000611352610f88565b905061135e8282611317565b919050565b600067ffffffffffffffff82111561137e5761137d6112e8565b5b6113878261109d565b9050602081019050919050565b82818337600083830152505050565b60006113b66113b184611363565b611348565b9050828152602081018484840111156113d2576113d16112e3565b5b6113dd848285611394565b509392505050565b600082601f8301126113fa576113f96112de565b5b813561140a8482602086016113a3565b91505092915050565b60006020828403121561142957611428610f92565b5b600082013567ffffffffffffffff81111561144757611446610f97565b5b611453848285016113e5565b91505092915050565b7f4e487b7100000000000000000000000000000000000000000000000000000000600052602260045260246000fd5b600060028204905060018216806114a357607f821691505b6020821081036114b6576114b561145c565b5b50919050565b7f4572726f72202d20617070726f76616c20746f2063757272656e74206f776e6560008201527f7200000000000000000000000000000000000000000000000000000000000000602082015250565b6000611518602183611062565b9150611523826114bc565b604082019050919050565b600060208201905081810360008301526115478161150b565b9050919050565b7f43757272656e742063616c6c6572206973206e6f7420746865206f776e65722060008201527f6f662074686520746f6b656e0000000000000000000000000000000000000000602082015250565b60006115aa602c83611062565b91506115b58261154e565b604082019050919050565b600060208201905081810360008301526115d98161159d565b9050919050565b7f4f776e657220696e646578206973206f7574206f6620626f756e647321000000600082015250565b6000611616601d83611062565b9150611621826115e0565b602082019050919050565b6000602082019050818103600083015261164581611609565b9050919050565b7f4e487b7100000000000000000000000000000000000000000000000000000000600052603260045260246000fd5b7f476c6f62616c20696e646578206973206f7574206f6620626f756e6473210000600082015250565b60006116b1601e83611062565b91506116bc8261167b565b602082019050919050565b600060208201905081810360008301526116e0816116a4565b9050919050565b7f6f776e657220717565727920666f72206e6f6e2d6578697374656e7420746f6b60008201527f656e000000000000000000000000000000000000000000000000000000000000602082015250565b6000611743602283611062565b915061174e826116e7565b604082019050919050565b6000602082019050818103600083015261177281611736565b9050919050565b600081905092915050565b600061178f82611057565b6117998185611779565b93506117a9818560208601611073565b80840191505092915050565b60006117c18284611784565b915081905092915050565b7f4572726f72202d204d657461776973654e465420616c7265616479206578697360008201527f7473000000000000000000000000000000000000000000000000000000000000602082015250565b6000611828602283611062565b9150611833826117cc565b604082019050919050565b600060208201905081810360008301526118578161181b565b9050919050565b60008190508160005260206000209050919050565b60006020601f8301049050919050565b600082821b905092915050565b6000600883026118c07fffffffffffffffffffffffffffffffffffffffffffffffffffffffffffffffff82611883565b6118ca8683611883565b95508019841693508086168417925050509392505050565b6000819050919050565b60006119076119026118fd84611167565b6118e2565b611167565b9050919050565b6000819050919050565b611921836118ec565b61193561192d8261190e565b848454611890565b825550505050565b600090565b61194a61193d565b611955818484611918565b505050565b5b818110156119795761196e600082611942565b60018101905061195b565b5050565b601f8211156119be5761198f8161185e565b61199884611873565b810160208510156119a7578190505b6119bb6119b385611873565b83018261195a565b50505b505050565b600082821c905092915050565b60006119e1600019846008026119c3565b1980831691505092915050565b60006119fa83836119d0565b9150826002028217905092915050565b611a1382611057565b67ffffffffffffffff811115611a2c57611a2b6112e8565b5b611a36825461148b565b611a4182828561197d565b600060209050601f831160018114611a745760008415611a62578287015190505b611a6c85826119ee565b865550611ad4565b601f198416611a828661185e565b60005b82811015611aaa57848901518255600182019150602085019450602081019050611a85565b86831015611ac75784890151611ac3601f8916826119d0565b8355505b6001600288020188555050505b505050505050565b7f4e487b7100000000000000000000000000000000000000000000000000000000600052601160045260246000fd5b6000611b1682611167565b9150611b2183611167565b9250828203905081811115611b3957611b38611adc565b5b92915050565b7f746f6b656e20646f6573206e6f74206578697374000000000000000000000000600082015250565b6000611b75601483611062565b9150611b8082611b3f565b602082019050919050565b60006020820190508181036000830152611ba481611b68565b9050919050565b7f4572726f72202d20455243373231205472616e7366657220746f207a65726f2060008201527f6164647265737300000000000000000000000000000000000000000000000000602082015250565b6000611c07602783611062565b9150611c1282611bab565b604082019050919050565b60006020820190508181036000830152611c3681611bfa565b9050919050565b7f4552433732313a20546f6b656e206e6f74206f776e656420627920616464726560008201527f7373000000000000000000000000000000000000000000000000000000000000602082015250565b6000611c99602283611062565b9150611ca482611c3d565b604082019050919050565b60006020820190508181036000830152611cc881611c8c565b9050919050565b6000611cda82611167565b9150611ce583611167565b9250828201905080821115611cfd57611cfc611adc565b5b92915050565b7f4552433732313a206d696e74696e6720746f20746865207a65726f206164647260008201527f6573730000000000000000000000000000000000000000000000000000000000602082015250565b6000611d5f602383611062565b9150611d6a82611d03565b604082019050919050565b60006020820190508181036000830152611d8e81611d52565b9050919050565b7f4552433732313a20546f6b656e20616c7265616479206d696e74656400000000600082015250565b6000611dcb601c83611062565b9150611dd682611d95565b602082019050919050565b60006020820190508181036000830152611dfa81611dbe565b905091905056fea2646970667358221220cf4a234a14979d0dbd6023aecb064823264fb8dc428a5ddb88dad4dbd6f9b40b64736f6c63430008110033",
  "immutableReferences": {},
  "source": "// SPDX-License-Identifier: MIT\r\npragma solidity ^0.8.0;\r\n\r\nimport './ERC721Connector.sol';\r\n\r\ncontract Metawise is ERC721Connector{\r\n\r\n    //Array to store our nfts\r\n    //Change name to MetawiseNFT, name in progress\r\n    //Metawise = MW\r\n    //uint256[] public metawiseNFT;\r\n    string[] public metawiseNFT;\r\n\r\n    // Implement standard as an attribute\r\n\r\n\r\n    mapping(string => bool) _metawiseExists; \r\n    // mapping(uint256 => bool) _metawiseExists;\r\n\r\n    // Change mint function to have number of NFTs as parameter\r\n    //string memory _metawiseNFT parameter\r\n    function mint(string memory _metawiseNFT) public {\r\n\r\n      // require(!_metawiseExists[_metawiseNFT], 'Error - MetawiseNFT already exists');\r\n      require(!_metawiseExists[_metawiseNFT], 'Error - MetawiseNFT already exists');\r\n       \r\n       metawiseNFT.push(_metawiseNFT);\r\n       //metawiseNFT.push();\r\n       uint _id = metawiseNFT.length - 1;\r\n\r\n        _mint(msg.sender, _id);\r\n\r\n        _metawiseExists[_metawiseNFT] = true;\r\n    }\r\n\r\n constructor () ERC721Connector('MetawiseNFT'){\r\n\r\n   \r\n }\r\n\r\n}\r\n\r\n",
  "sourcePath": "C:\\Users\\GustavAlbrecht-JU21S\\websocket-projects\\emotiv-websocket-app\\solidity\\src\\contracts\\Metawise.sol",
  "compiler": {
    "name": "solc",
    "version": "0.8.17+commit.8df45f5f.Emscripten.clang"
  },
  "schemaVersion": "3.4.7",
  "updatedAt": "2022-10-12T19:11:56.614Z",
  "devdoc": {
    "kind": "dev",
    "methods": {
      "ownerOf(uint256)": {
        "details": "NFTs assigned to zero address are considered invalid, and queries  about them do throw.",
        "params": {
          "_tokenId": "The identifier for an NFT"
        },
        "returns": {
          "_0": "The address of the owner of the NFT"
        }
      },
      "supportsInterface(bytes4)": {
        "details": "Interface identification is specified in ERC-165. This function  uses less than 30,000 gas.",
        "params": {
          "interfaceID": "The interface identifier, as specified in ERC-165"
        },
        "returns": {
          "_0": "`true` if the contract implements `interfaceID` and  `interfaceID` is not 0xffffffff, `false` otherwise"
        }
      }
    },
    "version": 1
  },
  "userdoc": {
    "kind": "user",
    "methods": {
      "ownerOf(uint256)": {
        "notice": "Find the owner of an NFT"
      },
      "supportsInterface(bytes4)": {
        "notice": "Query if a contract implements an interface"
      }
    },
    "version": 1
  }
}