{
  "contractName": "RWD",
  "abi": [
    {
      "inputs": [],
      "stateMutability": "nonpayable",
      "type": "constructor"
    },
    {
      "anonymous": false,
      "inputs": [
        {
          "indexed": true,
          "internalType": "address",
          "name": "_owner",
          "type": "address"
        },
        {
          "indexed": true,
          "internalType": "address",
          "name": "_spender",
          "type": "address"
        },
        {
          "indexed": false,
          "internalType": "uint256",
          "name": "_value",
          "type": "uint256"
        }
      ],
      "name": "Approval",
      "type": "event"
    },
    {
      "anonymous": false,
      "inputs": [
        {
          "indexed": true,
          "internalType": "address",
          "name": "_from",
          "type": "address"
        },
        {
          "indexed": true,
          "internalType": "address",
          "name": "_to",
          "type": "address"
        },
        {
          "indexed": false,
          "internalType": "uint256",
          "name": "_value",
          "type": "uint256"
        }
      ],
      "name": "Transfer",
      "type": "event"
    },
    {
      "inputs": [
        {
          "internalType": "address",
          "name": "",
          "type": "address"
        },
        {
          "internalType": "address",
          "name": "",
          "type": "address"
        }
      ],
      "name": "allowance",
      "outputs": [
        {
          "internalType": "uint256",
          "name": "",
          "type": "uint256"
        }
      ],
      "stateMutability": "view",
      "type": "function"
    },
    {
      "inputs": [],
      "name": "decimals",
      "outputs": [
        {
          "internalType": "uint8",
          "name": "",
          "type": "uint8"
        }
      ],
      "stateMutability": "view",
      "type": "function"
    },
    {
      "inputs": [],
      "name": "name",
      "outputs": [
        {
          "internalType": "string",
          "name": "",
          "type": "string"
        }
      ],
      "stateMutability": "view",
      "type": "function"
    },
    {
      "inputs": [],
      "name": "symbol",
      "outputs": [
        {
          "internalType": "string",
          "name": "",
          "type": "string"
        }
      ],
      "stateMutability": "view",
      "type": "function"
    },
    {
      "inputs": [
        {
          "internalType": "address",
          "name": "_to",
          "type": "address"
        },
        {
          "internalType": "uint256",
          "name": "_value",
          "type": "uint256"
        }
      ],
      "name": "transfer",
      "outputs": [
        {
          "internalType": "bool",
          "name": "success",
          "type": "bool"
        }
      ],
      "stateMutability": "nonpayable",
      "type": "function"
    },
    {
      "inputs": [
        {
          "internalType": "address",
          "name": "_spender",
          "type": "address"
        },
        {
          "internalType": "uint256",
          "name": "_value",
          "type": "uint256"
        }
      ],
      "name": "approve",
      "outputs": [
        {
          "internalType": "bool",
          "name": "success",
          "type": "bool"
        }
      ],
      "stateMutability": "nonpayable",
      "type": "function"
    },
    {
      "inputs": [
        {
          "internalType": "address",
          "name": "_from",
          "type": "address"
        },
        {
          "internalType": "address",
          "name": "_to",
          "type": "address"
        },
        {
          "internalType": "uint256",
          "name": "_value",
          "type": "uint256"
        }
      ],
      "name": "transferFrom",
      "outputs": [
        {
          "internalType": "bool",
          "name": "success",
          "type": "bool"
        }
      ],
      "stateMutability": "nonpayable",
      "type": "function"
    }
  ],
  "bytecode": "0x60806040526040518060400160405280600c81526020017f52657761726420546f6b656e0000000000000000000000000000000000000000815250600090816200004a91906200038f565b506040518060400160405280600381526020017f5257440000000000000000000000000000000000000000000000000000000000815250600190816200009191906200038f565b50683635c9adc5dea000006002556012600360006101000a81548160ff021916908360ff160217905550348015620000c857600080fd5b50600254600460003373ffffffffffffffffffffffffffffffffffffffff1673ffffffffffffffffffffffffffffffffffffffff1681526020019081526020016000208190555062000476565b600081519050919050565b7f4e487b7100000000000000000000000000000000000000000000000000000000600052604160045260246000fd5b7f4e487b7100000000000000000000000000000000000000000000000000000000600052602260045260246000fd5b600060028204905060018216806200019757607f821691505b602082108103620001ad57620001ac6200014f565b5b50919050565b60008190508160005260206000209050919050565b60006020601f8301049050919050565b600082821b905092915050565b600060088302620002177fffffffffffffffffffffffffffffffffffffffffffffffffffffffffffffffff82620001d8565b620002238683620001d8565b95508019841693508086168417925050509392505050565b6000819050919050565b6000819050919050565b6000620002706200026a62000264846200023b565b62000245565b6200023b565b9050919050565b6000819050919050565b6200028c836200024f565b620002a46200029b8262000277565b848454620001e5565b825550505050565b600090565b620002bb620002ac565b620002c881848462000281565b505050565b5b81811015620002f057620002e4600082620002b1565b600181019050620002ce565b5050565b601f8211156200033f576200030981620001b3565b6200031484620001c8565b8101602085101562000324578190505b6200033c6200033385620001c8565b830182620002cd565b50505b505050565b600082821c905092915050565b6000620003646000198460080262000344565b1980831691505092915050565b60006200037f838362000351565b9150826002028217905092915050565b6200039a8262000115565b67ffffffffffffffff811115620003b657620003b562000120565b5b620003c282546200017e565b620003cf828285620002f4565b600060209050601f831160018114620004075760008415620003f2578287015190505b620003fe858262000371565b8655506200046e565b601f1984166200041786620001b3565b60005b8281101562000441578489015182556001820191506020850194506020810190506200041a565b868310156200046157848901516200045d601f89168262000351565b8355505b6001600288020188555050505b505050505050565b610bb380620004866000396000f3fe608060405234801561001057600080fd5b506004361061007d5760003560e01c8063313ce5671161005b578063313ce5671461010057806395d89b411461011e578063a9059cbb1461013c578063dd62ed3e1461016c5761007d565b806306fdde0314610082578063095ea7b3146100a057806323b872dd146100d0575b600080fd5b61008a61019c565b6040516100979190610861565b60405180910390f35b6100ba60048036038101906100b5919061091c565b61022a565b6040516100c79190610977565b60405180910390f35b6100ea60048036038101906100e59190610992565b61031c565b6040516100f79190610977565b60405180910390f35b6101086105a2565b6040516101159190610a01565b60405180910390f35b6101266105b5565b6040516101339190610861565b60405180910390f35b6101566004803603810190610151919061091c565b610643565b6040516101639190610977565b60405180910390f35b61018660048036038101906101819190610a1c565b6107ac565b6040516101939190610a6b565b60405180910390f35b600080546101a990610ab5565b80601f01602080910402602001604051908101604052809291908181526020018280546101d590610ab5565b80156102225780601f106101f757610100808354040283529160200191610222565b820191906000526020600020905b81548152906001019060200180831161020557829003601f168201915b505050505081565b600081600560003373ffffffffffffffffffffffffffffffffffffffff1673ffffffffffffffffffffffffffffffffffffffff16815260200190815260200160002060008573ffffffffffffffffffffffffffffffffffffffff1673ffffffffffffffffffffffffffffffffffffffff168152602001908152602001600020819055508273ffffffffffffffffffffffffffffffffffffffff163373ffffffffffffffffffffffffffffffffffffffff167f8c5be1e5ebec7d5bd14f71427d1e84f3dd0314c0f7b2291e5b200ac8c7c3b9258460405161030a9190610a6b565b60405180910390a36001905092915050565b6000600460008573ffffffffffffffffffffffffffffffffffffffff1673ffffffffffffffffffffffffffffffffffffffff1681526020019081526020016000205482111561036a57600080fd5b600560008573ffffffffffffffffffffffffffffffffffffffff1673ffffffffffffffffffffffffffffffffffffffff16815260200190815260200160002060003373ffffffffffffffffffffffffffffffffffffffff1673ffffffffffffffffffffffffffffffffffffffff168152602001908152602001600020548211156103f357600080fd5b81600460008673ffffffffffffffffffffffffffffffffffffffff1673ffffffffffffffffffffffffffffffffffffffff16815260200190815260200160002060008282546104429190610b15565b9250508190555081600460008573ffffffffffffffffffffffffffffffffffffffff1673ffffffffffffffffffffffffffffffffffffffff16815260200190815260200160002060008282546104989190610b49565b9250508190555081600560003373ffffffffffffffffffffffffffffffffffffffff1673ffffffffffffffffffffffffffffffffffffffff16815260200190815260200160002060008673ffffffffffffffffffffffffffffffffffffffff1673ffffffffffffffffffffffffffffffffffffffff168152602001908152602001600020600082825461052b9190610b15565b925050819055508273ffffffffffffffffffffffffffffffffffffffff168473ffffffffffffffffffffffffffffffffffffffff167fddf252ad1be2c89b69c2b068fc378daa952ba7f163c4a11628f55a4df523b3ef8460405161058f9190610a6b565b60405180910390a3600190509392505050565b600360009054906101000a900460ff1681565b600180546105c290610ab5565b80601f01602080910402602001604051908101604052809291908181526020018280546105ee90610ab5565b801561063b5780601f106106105761010080835404028352916020019161063b565b820191906000526020600020905b81548152906001019060200180831161061e57829003601f168201915b505050505081565b600081600460003373ffffffffffffffffffffffffffffffffffffffff1673ffffffffffffffffffffffffffffffffffffffff16815260200190815260200160002054101561069157600080fd5b81600460003373ffffffffffffffffffffffffffffffffffffffff1673ffffffffffffffffffffffffffffffffffffffff16815260200190815260200160002060008282546106e09190610b15565b9250508190555081600460008573ffffffffffffffffffffffffffffffffffffffff1673ffffffffffffffffffffffffffffffffffffffff16815260200190815260200160002060008282546107369190610b49565b925050819055508273ffffffffffffffffffffffffffffffffffffffff163373ffffffffffffffffffffffffffffffffffffffff167fddf252ad1be2c89b69c2b068fc378daa952ba7f163c4a11628f55a4df523b3ef8460405161079a9190610a6b565b60405180910390a36001905092915050565b6005602052816000526040600020602052806000526040600020600091509150505481565b600081519050919050565b600082825260208201905092915050565b60005b8381101561080b5780820151818401526020810190506107f0565b60008484015250505050565b6000601f19601f8301169050919050565b6000610833826107d1565b61083d81856107dc565b935061084d8185602086016107ed565b61085681610817565b840191505092915050565b6000602082019050818103600083015261087b8184610828565b905092915050565b600080fd5b600073ffffffffffffffffffffffffffffffffffffffff82169050919050565b60006108b382610888565b9050919050565b6108c3816108a8565b81146108ce57600080fd5b50565b6000813590506108e0816108ba565b92915050565b6000819050919050565b6108f9816108e6565b811461090457600080fd5b50565b600081359050610916816108f0565b92915050565b6000806040838503121561093357610932610883565b5b6000610941858286016108d1565b925050602061095285828601610907565b9150509250929050565b60008115159050919050565b6109718161095c565b82525050565b600060208201905061098c6000830184610968565b92915050565b6000806000606084860312156109ab576109aa610883565b5b60006109b9868287016108d1565b93505060206109ca868287016108d1565b92505060406109db86828701610907565b9150509250925092565b600060ff82169050919050565b6109fb816109e5565b82525050565b6000602082019050610a1660008301846109f2565b92915050565b60008060408385031215610a3357610a32610883565b5b6000610a41858286016108d1565b9250506020610a52858286016108d1565b9150509250929050565b610a65816108e6565b82525050565b6000602082019050610a806000830184610a5c565b92915050565b7f4e487b7100000000000000000000000000000000000000000000000000000000600052602260045260246000fd5b60006002820490506001821680610acd57607f821691505b602082108103610ae057610adf610a86565b5b50919050565b7f4e487b7100000000000000000000000000000000000000000000000000000000600052601160045260246000fd5b6000610b20826108e6565b9150610b2b836108e6565b9250828203905081811115610b4357610b42610ae6565b5b92915050565b6000610b54826108e6565b9150610b5f836108e6565b9250828201905080821115610b7757610b76610ae6565b5b9291505056fea2646970667358221220739c25231e1a52f102eecc8f5842c473a664d8247495d84e9fa7909f5b2b44de64736f6c63430008110033",
  "immutableReferences": {},
  "source": "// SPDX-License-Identifier: MIT\r\npragma solidity ^0.8.0;\r\n\r\ncontract RWD {\r\n\r\n   string public name = 'Reward Token';\r\n   string public symbol = 'RWD';\r\n   uint256 totalSupply = 1000000000000000000000; // 1 milion tokens\r\n   // ETH has 18 decimals\r\n   uint8 public decimals = 18;\r\n\r\n    // uint256 public totalSupply = 1000000000000000000000; // 1 milion tokens\r\n   // ETH has 18 decimals\r\n   //uint8 public decimals = 18;\r\n\r\n     // mapping(address => uint256) public balanceOf;\r\n    mapping(address => uint256) private balances;\r\n    //Allowance is a function in ERC20 standard\r\n    mapping(address => mapping(address => uint256)) public allowance;\r\n\r\n    event Transfer(address indexed _from, address indexed _to, uint256 _value);\r\n\r\n    event Approval(\r\n        address indexed _owner,\r\n        address indexed _spender,\r\n        uint256 _value\r\n    );\r\n\r\n\r\n\r\n\r\n    constructor() {\r\n        balances[msg.sender] = totalSupply;\r\n\r\n        //_totalSupply = _initialSupply;\r\n        // allocate initial supply\r\n        //initialSupply = 10000000000;\r\n        //totalSupply_ = _initialSupply * 10 ** uint(decimals);\r\n        //balance[owner] = totalSupply_;\r\n    }\r\n\r\n    function transfer(address _to, uint256 _value) public returns (bool success) {\r\n        require(balances[msg.sender] >= _value);\r\n        balances[msg.sender] -= _value;\r\n        balances[_to] += _value;\r\n\r\n        emit Transfer(msg.sender, _to, _value);\r\n\r\n        return true;\r\n    }\r\n\r\n    function approve(address _spender, uint256 _value) public returns (bool success) {\r\n        //The ERC-20 standard allows an address to give an allowance to another address to be able to retrieve tokens from it.\r\n        //This getter returns the remaining number of tokens that the spender will be allowed to spend on behalf of owner .\r\n        allowance[msg.sender][_spender] = _value;\r\n\r\n        emit Approval(msg.sender, _spender, _value);\r\n\r\n        return true;\r\n    }\r\n      //transferFrom enables third party clients to interact with the smart contract \r\n    function transferFrom( address _from, address _to, uint256 _value ) public returns (bool success) {\r\n        require(_value <= balances[_from]);\r\n        require(_value <= allowance[_from][msg.sender]);\r\n\r\n        balances[_from] -= _value;\r\n        balances[_to] += _value;\r\n\r\n        //allowance[_from][msg.sender] -= _value;\r\n        allowance[msg.sender][_from] -= _value;\r\n\r\n        emit Transfer(_from, _to, _value);\r\n\r\n        return true;\r\n    }\r\n}",
  "sourcePath": "C:\\Users\\GustavAlbrecht-JU21S\\websocket-projects\\emotiv-websocket-app\\solidity\\src\\contracts\\RWD.sol",
  "compiler": {
    "name": "solc",
    "version": "0.8.17+commit.8df45f5f.Emscripten.clang"
  },
  "schemaVersion": "3.4.7",
  "updatedAt": "2022-10-12T19:11:56.652Z",
  "devdoc": {
    "kind": "dev",
    "methods": {},
    "version": 1
  },
  "userdoc": {
    "kind": "user",
    "methods": {},
    "version": 1
  }
}