{
  "contractName": "UnconsciousEnergyToken",
  "abi": [
    {
      "inputs": [],
      "stateMutability": "nonpayable",
      "type": "constructor"
    },
    {
      "anonymous": false,
      "inputs": [
        {
          "indexed": true,
          "internalType": "address",
          "name": "_owner",
          "type": "address"
        },
        {
          "indexed": true,
          "internalType": "address",
          "name": "_spender",
          "type": "address"
        },
        {
          "indexed": false,
          "internalType": "uint256",
          "name": "_value",
          "type": "uint256"
        }
      ],
      "name": "Approval",
      "type": "event"
    },
    {
      "anonymous": false,
      "inputs": [
        {
          "indexed": true,
          "internalType": "address",
          "name": "_from",
          "type": "address"
        },
        {
          "indexed": true,
          "internalType": "address",
          "name": "_to",
          "type": "address"
        },
        {
          "indexed": false,
          "internalType": "uint256",
          "name": "_value",
          "type": "uint256"
        }
      ],
      "name": "Transfer",
      "type": "event"
    },
    {
      "inputs": [
        {
          "internalType": "address",
          "name": "",
          "type": "address"
        },
        {
          "internalType": "address",
          "name": "",
          "type": "address"
        }
      ],
      "name": "allowance",
      "outputs": [
        {
          "internalType": "uint256",
          "name": "",
          "type": "uint256"
        }
      ],
      "stateMutability": "view",
      "type": "function"
    },
    {
      "inputs": [
        {
          "internalType": "address",
          "name": "",
          "type": "address"
        }
      ],
      "name": "balanceOf",
      "outputs": [
        {
          "internalType": "uint256",
          "name": "",
          "type": "uint256"
        }
      ],
      "stateMutability": "view",
      "type": "function"
    },
    {
      "inputs": [],
      "name": "decimals",
      "outputs": [
        {
          "internalType": "uint8",
          "name": "",
          "type": "uint8"
        }
      ],
      "stateMutability": "view",
      "type": "function"
    },
    {
      "inputs": [],
      "name": "minter",
      "outputs": [
        {
          "internalType": "address",
          "name": "",
          "type": "address"
        }
      ],
      "stateMutability": "view",
      "type": "function"
    },
    {
      "inputs": [],
      "name": "name",
      "outputs": [
        {
          "internalType": "string",
          "name": "",
          "type": "string"
        }
      ],
      "stateMutability": "view",
      "type": "function"
    },
    {
      "inputs": [],
      "name": "standard",
      "outputs": [
        {
          "internalType": "string",
          "name": "",
          "type": "string"
        }
      ],
      "stateMutability": "view",
      "type": "function"
    },
    {
      "inputs": [],
      "name": "symbol",
      "outputs": [
        {
          "internalType": "string",
          "name": "",
          "type": "string"
        }
      ],
      "stateMutability": "view",
      "type": "function"
    },
    {
      "inputs": [],
      "name": "totalSupply",
      "outputs": [
        {
          "internalType": "uint256",
          "name": "",
          "type": "uint256"
        }
      ],
      "stateMutability": "view",
      "type": "function"
    },
    {
      "inputs": [
        {
          "internalType": "address",
          "name": "reciever",
          "type": "address"
        },
        {
          "internalType": "uint256",
          "name": "amount",
          "type": "uint256"
        }
      ],
      "name": "mint",
      "outputs": [],
      "stateMutability": "nonpayable",
      "type": "function"
    },
    {
      "inputs": [
        {
          "internalType": "address",
          "name": "account",
          "type": "address"
        },
        {
          "internalType": "uint256",
          "name": "amount",
          "type": "uint256"
        }
      ],
      "name": "mint2",
      "outputs": [],
      "stateMutability": "nonpayable",
      "type": "function"
    },
    {
      "inputs": [
        {
          "internalType": "address",
          "name": "_to",
          "type": "address"
        },
        {
          "internalType": "uint256",
          "name": "_value",
          "type": "uint256"
        }
      ],
      "name": "claimTokens",
      "outputs": [
        {
          "internalType": "bool",
          "name": "success",
          "type": "bool"
        }
      ],
      "stateMutability": "nonpayable",
      "type": "function"
    },
    {
      "inputs": [],
      "name": "totalSupply2",
      "outputs": [
        {
          "internalType": "uint256",
          "name": "",
          "type": "uint256"
        }
      ],
      "stateMutability": "view",
      "type": "function"
    },
    {
      "inputs": [
        {
          "internalType": "address",
          "name": "account",
          "type": "address"
        }
      ],
      "name": "balanceOf2",
      "outputs": [
        {
          "internalType": "uint256",
          "name": "",
          "type": "uint256"
        }
      ],
      "stateMutability": "view",
      "type": "function"
    },
    {
      "inputs": [
        {
          "internalType": "address",
          "name": "_to",
          "type": "address"
        },
        {
          "internalType": "uint256",
          "name": "_value",
          "type": "uint256"
        }
      ],
      "name": "transfer",
      "outputs": [
        {
          "internalType": "bool",
          "name": "success",
          "type": "bool"
        }
      ],
      "stateMutability": "nonpayable",
      "type": "function"
    },
    {
      "inputs": [
        {
          "internalType": "address",
          "name": "_spender",
          "type": "address"
        },
        {
          "internalType": "uint256",
          "name": "_value",
          "type": "uint256"
        }
      ],
      "name": "approve",
      "outputs": [
        {
          "internalType": "bool",
          "name": "success",
          "type": "bool"
        }
      ],
      "stateMutability": "nonpayable",
      "type": "function"
    },
    {
      "inputs": [
        {
          "internalType": "address",
          "name": "_from",
          "type": "address"
        },
        {
          "internalType": "address",
          "name": "_to",
          "type": "address"
        },
        {
          "internalType": "uint256",
          "name": "_value",
          "type": "uint256"
        }
      ],
      "name": "transferFrom",
      "outputs": [
        {
          "internalType": "bool",
          "name": "success",
          "type": "bool"
        }
      ],
      "stateMutability": "nonpayable",
      "type": "function"
    }
  ],
  "bytecode": "0x60806040526040518060400160405280601881526020017f556e636f6e7363696f757320456e6572677920546f6b656e0000000000000000815250600090816200004a9190620003d4565b506040518060400160405280600281526020017f554500000000000000000000000000000000000000000000000000000000000081525060019081620000919190620003d4565b506040518060400160405280601781526020017f556e636f6e7363696f757320456e657267792076302e3100000000000000000081525060029081620000d89190620003d4565b506b033b2e3c9fd0803ce80000006004556012600560006101000a81548160ff021916908360ff1602179055503480156200011257600080fd5b5033600360006101000a81548173ffffffffffffffffffffffffffffffffffffffff021916908373ffffffffffffffffffffffffffffffffffffffff160217905550620004bb565b600081519050919050565b7f4e487b7100000000000000000000000000000000000000000000000000000000600052604160045260246000fd5b7f4e487b7100000000000000000000000000000000000000000000000000000000600052602260045260246000fd5b60006002820490506001821680620001dc57607f821691505b602082108103620001f257620001f162000194565b5b50919050565b60008190508160005260206000209050919050565b60006020601f8301049050919050565b600082821b905092915050565b6000600883026200025c7fffffffffffffffffffffffffffffffffffffffffffffffffffffffffffffffff826200021d565b6200026886836200021d565b95508019841693508086168417925050509392505050565b6000819050919050565b6000819050919050565b6000620002b5620002af620002a98462000280565b6200028a565b62000280565b9050919050565b6000819050919050565b620002d18362000294565b620002e9620002e082620002bc565b8484546200022a565b825550505050565b600090565b62000300620002f1565b6200030d818484620002c6565b505050565b5b81811015620003355762000329600082620002f6565b60018101905062000313565b5050565b601f82111562000384576200034e81620001f8565b62000359846200020d565b8101602085101562000369578190505b6200038162000378856200020d565b83018262000312565b50505b505050565b600082821c905092915050565b6000620003a96000198460080262000389565b1980831691505092915050565b6000620003c4838362000396565b9150826002028217905092915050565b620003df826200015a565b67ffffffffffffffff811115620003fb57620003fa62000165565b5b620004078254620001c3565b6200041482828562000339565b600060209050601f8311600181146200044c576000841562000437578287015190505b620004438582620003b6565b865550620004b3565b601f1984166200045c86620001f8565b60005b8281101562000486578489015182556001820191506020850194506020810190506200045f565b86831015620004a65784890151620004a2601f89168262000396565b8355505b6001600288020188555050505b505050505050565b61149680620004cb6000396000f3fe608060405234801561001057600080fd5b50600436106101005760003560e01c806370a0823111610097578063a9059cbb11610066578063a9059cbb146102b3578063dd62ed3e146102e3578063e3a8c91914610313578063fe417fa51461032f57610100565b806370a08231146102175780637f5b002e1461024757806395d89b411461027757806396178c201461029557610100565b806323b872dd116100d357806323b872dd1461018f578063313ce567146101bf57806340c10f19146101dd5780635a3b7e42146101f957610100565b806306fdde03146101055780630754617214610123578063095ea7b31461014157806318160ddd14610171575b600080fd5b61010d61035f565b60405161011a9190610fef565b60405180910390f35b61012b6103ed565b6040516101389190611052565b60405180910390f35b61015b600480360381019061015691906110d4565b610413565b604051610168919061112f565b60405180910390f35b610179610505565b6040516101869190611159565b60405180910390f35b6101a960048036038101906101a49190611174565b61050b565b6040516101b6919061112f565b60405180910390f35b6101c7610791565b6040516101d491906111e3565b60405180910390f35b6101f760048036038101906101f291906110d4565b6107a4565b005b610201610858565b60405161020e9190610fef565b60405180910390f35b610231600480360381019061022c91906111fe565b6108e6565b60405161023e9190611159565b60405180910390f35b610261600480360381019061025c91906111fe565b6108fe565b60405161026e9190611159565b60405180910390f35b61027f610947565b60405161028c9190610fef565b60405180910390f35b61029d6109d5565b6040516102aa9190611159565b60405180910390f35b6102cd60048036038101906102c891906110d4565b6109df565b6040516102da919061112f565b60405180910390f35b6102fd60048036038101906102f8919061122b565b610b48565b60405161030a9190611159565b60405180910390f35b61032d600480360381019061032891906110d4565b610b6d565b005b610349600480360381019061034491906110d4565b610cc4565b604051610356919061112f565b60405180910390f35b6000805461036c9061129a565b80601f01602080910402602001604051908101604052809291908181526020018280546103989061129a565b80156103e55780601f106103ba576101008083540402835291602001916103e5565b820191906000526020600020905b8154815290600101906020018083116103c857829003601f168201915b505050505081565b600360009054906101000a900473ffffffffffffffffffffffffffffffffffffffff1681565b600081600760003373ffffffffffffffffffffffffffffffffffffffff1673ffffffffffffffffffffffffffffffffffffffff16815260200190815260200160002060008573ffffffffffffffffffffffffffffffffffffffff1673ffffffffffffffffffffffffffffffffffffffff168152602001908152602001600020819055508273ffffffffffffffffffffffffffffffffffffffff163373ffffffffffffffffffffffffffffffffffffffff167f8c5be1e5ebec7d5bd14f71427d1e84f3dd0314c0f7b2291e5b200ac8c7c3b925846040516104f39190611159565b60405180910390a36001905092915050565b60045481565b6000600660008573ffffffffffffffffffffffffffffffffffffffff1673ffffffffffffffffffffffffffffffffffffffff1681526020019081526020016000205482111561055957600080fd5b600760008573ffffffffffffffffffffffffffffffffffffffff1673ffffffffffffffffffffffffffffffffffffffff16815260200190815260200160002060003373ffffffffffffffffffffffffffffffffffffffff1673ffffffffffffffffffffffffffffffffffffffff168152602001908152602001600020548211156105e257600080fd5b81600660008673ffffffffffffffffffffffffffffffffffffffff1673ffffffffffffffffffffffffffffffffffffffff168152602001908152602001600020600082825461063191906112fa565b9250508190555081600660008573ffffffffffffffffffffffffffffffffffffffff1673ffffffffffffffffffffffffffffffffffffffff1681526020019081526020016000206000828254610687919061132e565b9250508190555081600760003373ffffffffffffffffffffffffffffffffffffffff1673ffffffffffffffffffffffffffffffffffffffff16815260200190815260200160002060008673ffffffffffffffffffffffffffffffffffffffff1673ffffffffffffffffffffffffffffffffffffffff168152602001908152602001600020600082825461071a91906112fa565b925050819055508273ffffffffffffffffffffffffffffffffffffffff168473ffffffffffffffffffffffffffffffffffffffff167fddf252ad1be2c89b69c2b068fc378daa952ba7f163c4a11628f55a4df523b3ef8460405161077e9190611159565b60405180910390a3600190509392505050565b600560009054906101000a900460ff1681565b600360009054906101000a900473ffffffffffffffffffffffffffffffffffffffff1673ffffffffffffffffffffffffffffffffffffffff163373ffffffffffffffffffffffffffffffffffffffff16146107fe57600080fd5b80600660008473ffffffffffffffffffffffffffffffffffffffff1673ffffffffffffffffffffffffffffffffffffffff168152602001908152602001600020600082825461084d919061132e565b925050819055505050565b600280546108659061129a565b80601f01602080910402602001604051908101604052809291908181526020018280546108919061129a565b80156108de5780601f106108b3576101008083540402835291602001916108de565b820191906000526020600020905b8154815290600101906020018083116108c157829003601f168201915b505050505081565b60066020528060005260406000206000915090505481565b6000600660008373ffffffffffffffffffffffffffffffffffffffff1673ffffffffffffffffffffffffffffffffffffffff168152602001908152602001600020549050919050565b600180546109549061129a565b80601f01602080910402602001604051908101604052809291908181526020018280546109809061129a565b80156109cd5780601f106109a2576101008083540402835291602001916109cd565b820191906000526020600020905b8154815290600101906020018083116109b057829003601f168201915b505050505081565b6000600454905090565b600081600660003373ffffffffffffffffffffffffffffffffffffffff1673ffffffffffffffffffffffffffffffffffffffff168152602001908152602001600020541015610a2d57600080fd5b81600660003373ffffffffffffffffffffffffffffffffffffffff1673ffffffffffffffffffffffffffffffffffffffff1681526020019081526020016000206000828254610a7c91906112fa565b9250508190555081600660008573ffffffffffffffffffffffffffffffffffffffff1673ffffffffffffffffffffffffffffffffffffffff1681526020019081526020016000206000828254610ad2919061132e565b925050819055508273ffffffffffffffffffffffffffffffffffffffff163373ffffffffffffffffffffffffffffffffffffffff167fddf252ad1be2c89b69c2b068fc378daa952ba7f163c4a11628f55a4df523b3ef84604051610b369190611159565b60405180910390a36001905092915050565b6007602052816000526040600020602052806000526040600020600091509150505481565b600073ffffffffffffffffffffffffffffffffffffffff168273ffffffffffffffffffffffffffffffffffffffff1603610bdc576040517f08c379a0000000000000000000000000000000000000000000000000000000008152600401610bd3906113ae565b60405180910390fd5b610be860008383610f55565b8060046000828254610bfa91906112fa565b9250508190555080600660008473ffffffffffffffffffffffffffffffffffffffff1673ffffffffffffffffffffffffffffffffffffffff168152602001908152602001600020600082825401925050819055508173ffffffffffffffffffffffffffffffffffffffff16600073ffffffffffffffffffffffffffffffffffffffff167fddf252ad1be2c89b69c2b068fc378daa952ba7f163c4a11628f55a4df523b3ef83604051610cac9190611159565b60405180910390a3610cc060008383610f5a565b5050565b6000808211610d08576040517f08c379a0000000000000000000000000000000000000000000000000000000008152600401610cff90611440565b60405180910390fd5b81600760003373ffffffffffffffffffffffffffffffffffffffff1673ffffffffffffffffffffffffffffffffffffffff16815260200190815260200160002060008573ffffffffffffffffffffffffffffffffffffffff1673ffffffffffffffffffffffffffffffffffffffff168152602001908152602001600020819055508273ffffffffffffffffffffffffffffffffffffffff163373ffffffffffffffffffffffffffffffffffffffff167f8c5be1e5ebec7d5bd14f71427d1e84f3dd0314c0f7b2291e5b200ac8c7c3b92584604051610de69190611159565b60405180910390a381600660003373ffffffffffffffffffffffffffffffffffffffff1673ffffffffffffffffffffffffffffffffffffffff168152602001908152602001600020541015610e3a57600080fd5b81600660003373ffffffffffffffffffffffffffffffffffffffff1673ffffffffffffffffffffffffffffffffffffffff1681526020019081526020016000206000828254610e8991906112fa565b9250508190555081600660008573ffffffffffffffffffffffffffffffffffffffff1673ffffffffffffffffffffffffffffffffffffffff1681526020019081526020016000206000828254610edf919061132e565b925050819055508273ffffffffffffffffffffffffffffffffffffffff163373ffffffffffffffffffffffffffffffffffffffff167fddf252ad1be2c89b69c2b068fc378daa952ba7f163c4a11628f55a4df523b3ef84604051610f439190611159565b60405180910390a36001905092915050565b505050565b505050565b600081519050919050565b600082825260208201905092915050565b60005b83811015610f99578082015181840152602081019050610f7e565b60008484015250505050565b6000601f19601f8301169050919050565b6000610fc182610f5f565b610fcb8185610f6a565b9350610fdb818560208601610f7b565b610fe481610fa5565b840191505092915050565b600060208201905081810360008301526110098184610fb6565b905092915050565b600073ffffffffffffffffffffffffffffffffffffffff82169050919050565b600061103c82611011565b9050919050565b61104c81611031565b82525050565b60006020820190506110676000830184611043565b92915050565b600080fd5b61107b81611031565b811461108657600080fd5b50565b60008135905061109881611072565b92915050565b6000819050919050565b6110b18161109e565b81146110bc57600080fd5b50565b6000813590506110ce816110a8565b92915050565b600080604083850312156110eb576110ea61106d565b5b60006110f985828601611089565b925050602061110a858286016110bf565b9150509250929050565b60008115159050919050565b61112981611114565b82525050565b60006020820190506111446000830184611120565b92915050565b6111538161109e565b82525050565b600060208201905061116e600083018461114a565b92915050565b60008060006060848603121561118d5761118c61106d565b5b600061119b86828701611089565b93505060206111ac86828701611089565b92505060406111bd868287016110bf565b9150509250925092565b600060ff82169050919050565b6111dd816111c7565b82525050565b60006020820190506111f860008301846111d4565b92915050565b6000602082840312156112145761121361106d565b5b600061122284828501611089565b91505092915050565b600080604083850312156112425761124161106d565b5b600061125085828601611089565b925050602061126185828601611089565b9150509250929050565b7f4e487b7100000000000000000000000000000000000000000000000000000000600052602260045260246000fd5b600060028204905060018216806112b257607f821691505b6020821081036112c5576112c461126b565b5b50919050565b7f4e487b7100000000000000000000000000000000000000000000000000000000600052601160045260246000fd5b60006113058261109e565b91506113108361109e565b9250828203905081811115611328576113276112cb565b5b92915050565b60006113398261109e565b91506113448361109e565b925082820190508082111561135c5761135b6112cb565b5b92915050565b7f45524332303a206d696e7420746f20746865207a65726f206164647265737300600082015250565b6000611398601f83610f6a565b91506113a382611362565b602082019050919050565b600060208201905081810360008301526113c78161138b565b9050919050565b7f546865726520617265206e6f20746f6b656e7320746f20626520636c61696d6560008201527f6400000000000000000000000000000000000000000000000000000000000000602082015250565b600061142a602183610f6a565b9150611435826113ce565b604082019050919050565b600060208201905081810360008301526114598161141d565b905091905056fea264697066735822122028bd1b12f61736a9e660d905cb9bbd532a5d8006f9b45ae60e557101f958481964736f6c63430008110033",
  "immutableReferences": {},
  "source": "// SPDX-License-Identifier: MIT\r\npragma solidity ^0.8.0;\r\n\r\n//Instance refers to a truffle-contract object, which represents the DToken contract deployed on the network.\r\n\r\n//This object exposes all the public and external functions of the DToken contract.\r\n\r\n/*contract ExchangeTokens {\r\n\r\n    address tokenToSend;\r\n\r\n    function claimTokens(address tokenSent) {\r\n        uint256 numTokens = ERC20(tokenSent).allowance(msg.sender, this);\r\n        if (numTokens > 0) {\r\n            ERC20(tokenSent).transferFrom(msg.sender, this, numTokens);\r\n            ERC20(tokenToSend).transfer(msg.sender, numTokens);\r\n        }\r\n    }\r\n}*/\r\n\r\n/*TokenInterface _instance = TokenInterface('tokenContractAddress')\r\n\r\nThe function will be then:\r\n\r\nfunction claimTokens () public onlyWhitelisted returns (bool){\r\n                require(!_investors[msg.sender].claimed);\r\n                TokenInterface _instance = TokenInterface('the_token_contract_address');\r\n                uint tokensToBeClaimed =  _investors[msg.sender].invested * ratio;\r\n                _investors[msg.sender].claimed = true;                   \r\n                _instance.transfer(contractAddress, msg.sender, tokensToBeClaimed));\r\n                return true;\r\n            }*/\r\n\r\n\r\n//Use ERC20 interface\r\ncontract UnconsciousEnergyToken {\r\n    //Name\r\n    string public name = \"Unconscious Energy Token\";\r\n    string public symbol = \"UE\";\r\n    //Standard not part of the ERC20\r\n    string public standard = \"Unconscious Energy v0.1\";\r\n    //Symbol\r\n    address public minter;\r\n\r\n    // Constructor\r\n    // Set the total number of tokens\r\n    // Read the total number of tokens\r\n    //totalSupply.toNumber()\r\n    //web3.eth.getAccounts()\r\n    //truffle(development)> let accounts = await web3.eth.getAccounts()\r\n    //truffle(development)> accounts[0]\r\n\r\n    //Totalsupply limited to uint256 type: (2^256)-1\r\n    //To have infinite supply erase all checks on totalSupply\r\n    // Put initial supply to 0 and then increase token count\r\n    //uint256 public _totalSupply ;\r\n    //Supply is 1 eth 18 decimals plus 6 zeros for it to be 1 million tokens\r\n     uint256 public totalSupply = 1000000000000000000000000000; // 1 milion tokens\r\n   // ETH has 18 decimals\r\n    uint8 public decimals = 18;\r\n\r\n    // mapping(address => uint256) public balanceOf;\r\n    mapping(address => uint256) public balanceOf;\r\n    //Allowance is a function in ERC20 standard\r\n    mapping(address => mapping(address => uint256)) public allowance;\r\n\r\n    event Transfer(address indexed _from, address indexed _to, uint256 _value);\r\n\r\n    event Approval(\r\n        address indexed _owner,\r\n        address indexed _spender,\r\n        uint256 _value\r\n    );\r\n\r\n  \r\n  // InitialSupply gets set by giving the total supply to msg_sender/the address that created the transaction\r\n\r\n    constructor() {\r\n        minter = msg.sender;\r\n       // balanceOf[msg.sender] = totalSupply;\r\n\r\n        //_totalSupply = _initialSupply;\r\n        // allocate initial supply\r\n        //initialSupply = 10000000000;\r\n        //totalSupply_ = _initialSupply * 10 ** uint(decimals);\r\n        //balance[owner] = totalSupply_;\r\n    }\r\n\r\n    //Transfer\r\n    //Exception if account doesn't have enough\r\n    //Return a boolean\r\n    //Transfer the balance\r\n    // Transfer Event\r\n\r\n    function mint(address reciever, uint256 amount) public {\r\n       require(msg.sender == minter);\r\n\r\n       balanceOf[reciever] += amount;\r\n       \r\n\r\n        /*require(account != address(0), \"ERC20: mint to the zero address\");\r\n         _balances[account] += amount;\r\n        emit Transfer(address(0), account, amount);*/\r\n    }\r\n\r\n    function mint2(address account, uint256 amount) external {\r\n        require(account != address(0), \"ERC20: mint to the zero address\");\r\n        \r\n\r\n        _beforeTokenTransfer(address(0), account, amount);\r\n\r\n        totalSupply -= amount;\r\n        \r\n        unchecked {\r\n        balanceOf[account] += amount;\r\n        }\r\n        \r\n\r\n      emit Transfer(address(0), account, amount);\r\n         \r\n         _afterTokenTransfer(address(0), account, amount);\r\n\r\n    }\r\n\r\n   function claimTokens(address _to, uint256 _value) public returns (bool success){\r\n    //_value = generatedTokens from EEGData\r\n           require(_value > 0, \"There are no tokens to be claimed\");\r\n           allowance[msg.sender][_to] = _value;\r\n\r\n           emit Approval(msg.sender, _to, _value);\r\n           \r\n        require(balanceOf[msg.sender] >= _value);\r\n        balanceOf[msg.sender] -= _value;\r\n        balanceOf[_to] += _value;\r\n\r\n        emit Transfer(msg.sender, _to, _value);\r\n\r\n        return true;\r\n\r\n\r\n   }\r\n\r\n   function totalSupply2() public view virtual returns (uint256){\r\n    return totalSupply;\r\n   }\r\n\r\n    function balanceOf2(address account) public view virtual returns (uint256){\r\n    return balanceOf[account];\r\n   }\r\n\r\n\r\n\r\n \r\n\r\n   /*function decimals() public view virtual returns (uint8){\r\n    return 18;\r\n   }*/\r\n\r\n    function transfer(address _to, uint256 _value) public returns (bool success) {\r\n        require(balanceOf[msg.sender] >= _value);\r\n        balanceOf[msg.sender] -= _value;\r\n        balanceOf[_to] += _value;\r\n\r\n        emit Transfer(msg.sender, _to, _value);\r\n\r\n        return true;\r\n    }\r\n\r\n    function approve(address _spender, uint256 _value) public returns (bool success) {\r\n        //The ERC-20 standard allows an address to give an allowance to another address to be able to retrieve tokens from it.\r\n        //This getter returns the remaining number of tokens that the spender will be allowed to spend on behalf of owner .\r\n        allowance[msg.sender][_spender] = _value;\r\n\r\n        emit Approval(msg.sender, _spender, _value);\r\n\r\n        return true;\r\n    }\r\n      //transferFrom enables third party clients to interact with the smart contract \r\n    function transferFrom( address _from, address _to, uint256 _value ) public returns (bool success) {\r\n        require(_value <= balanceOf[_from]);\r\n        require(_value <= allowance[_from][msg.sender]);\r\n\r\n        balanceOf[_from] -= _value;\r\n        balanceOf[_to] += _value;\r\n\r\n        //allowance[_from][msg.sender] -= _value;\r\n        allowance[msg.sender][_from] -= _value;\r\n\r\n        emit Transfer(_from, _to, _value);\r\n\r\n        return true;\r\n    }\r\n\r\n    function _beforeTokenTransfer(\r\n        address from,\r\n        address to, \r\n        uint256 amount\r\n    ) internal virtual{}\r\n\r\n    \r\n    function _afterTokenTransfer(\r\n        address from,\r\n        address to, \r\n        uint256 amount\r\n    ) internal virtual{}\r\n}\r\n",
  "sourcePath": "C:\\Users\\GustavAlbrecht-JU21S\\websocket-projects\\emotiv-websocket-app\\solidity\\src\\contracts\\UnconsciousEnergyToken.sol",
  "compiler": {
    "name": "solc",
    "version": "0.8.17+commit.8df45f5f.Emscripten.clang"
  },
  "schemaVersion": "3.4.7",
  "updatedAt": "2022-10-12T19:11:56.668Z",
  "devdoc": {
    "kind": "dev",
    "methods": {},
    "version": 1
  },
  "userdoc": {
    "kind": "user",
    "methods": {},
    "version": 1
  }
}